0169501360999992018010100004+52970+122530FM-12+043399999V0201401N00101026001C9004700199-02041-02321102941ADDAA124001531AJ100003100000099GA1081+026001101GA2999+999999101GA3999+999999101GE19MSL   +99999+99999GF108991081999026001999999MA1999999097051MD1210061-0101REMSYN004BUFR
0165501360999992018010103004+52970+122530FM-12+043399999V0201101N0010122000199004900199-01651-02051102921ADDAJ100079100070099AY171031AY201031GA1021+026001101GA2999+999999101GA3999+999999101GE19MSL   +99999+99999GF102991021999026001999999MD1210021+9999MW1001REMSYN004BUFR
0187501360999992018010106004+52970+122530FM-12+043399999V0202701N00101026001C9027000199-01271-01781102841ADDAA106000131AY171061AY201061GA1081+026001101GA2999+999999101GA3999+999999101GE19MSL   +99999+99999GF108991081999026001999999KA1240N-02051MA1999999097021MD1710051+9999MW1001REMSYN004BUFR
0148501360999992018010109004+52970+122530FM-12+043399999V0202701N00101026001C9030000199-01341-01691102901ADDAA106999999AA224999999GA1081+026001101GA2999+999999101GA3999+999999101GE19MSL   +99999+99999GF108991081999026001999999MD1210061+9999REMSYN004BUFR
0163501360999992018010112004+52970+122530FM-12+043399999V0202501N00201026001C9030000199-01321-01711102961ADDAA106999999AA224999999GA1081+026001101GA2999+999999101GA3999+999999101GE19MSL   +99999+99999GF108991081999026001999999MA1999999097121MD1210041+9999REMSYN004BUFR
0052501360999992018010115004+52970+122530FM-12+043399999V0202901N0020199999999030000199-01251-01671102941ADDAA106999999AA224999999MD1210031+9999REMSYN004BUFR
0067501360999992018010118004+52970+122530FM-12+043399999V0203401N0030199999999030000199-01301-01821102981ADDAA106999999AA224999999MA1999999097221MD1210071+9999REMSYN004BUFR
0052501360999992018010121004+52970+122530FM-12+043399999V0202501N0020199999999030000199-01771-02141103101ADDAA106999999AA224000231MD1210061+9999REMSYN004BUFR
0169501360999992018010200004+52970+122530FM-12+043399999V0202701N0020122000199030000199-02271-02551103221ADDAA124000131AJ100079100070099GA1031+026001101GA2999+999999101GA3999+999999101GE19MSL   +99999+99999GF103991031999026001999999MA1999999097341MD1210061+0301REMSYN004BUFR
0148501360999992018010203004+52970+122530FM-12+043399999V0202701N00301026001C9030000199-01421-02121103221ADDAA106999999AA224999999GA1061+026001101GA2999+999999101GA3999+999999101GE19MSL   +99999+99999GF106991061999026001999999MD1210101+9999REMSYN004BUFR
0176501360999992018010206004+52970+122530FM-12+043399999V0203401N00301026001C9030000199-01251-02101103201ADDAA106999999AA224999999GA1051+026001101GA2999+999999101GA3999+999999101GE19MSL   +99999+99999GF105991051999026001999999KA1240N-02291MA1999999097441MD1410001+9999REMSYN004BUFR
0148501360999992018010209004+52970+122530FM-12+043399999V0202701N00201026001C9030000199-01571-02201103461ADDAA106999999AA224999999GA1051+026001101GA2999+999999101GA3999+999999101GE19MSL   +99999+99999GF105991051999026001999999MD1210151+9999REMSYN004BUFR
0163501360999992018010212004+52970+122530FM-12+043399999V0202701N00101026001C9030000199-02191-02491103661ADDAA106999999AA224999999GA1061+026001101GA2999+999999101GA3999+999999101GE19MSL   +99999+99999GF106991061999026001999999MA1999999097661MD1210071+9999REMSYN004BUFR
0052501360999992018010215004+52970+122530FM-12+043399999V0202001N0030199999999015000199-02521-02821103681ADDAA106999999AA224999999MD1210071+9999REMSYN004BUFR
0067501360999992018010218004+52970+122530FM-12+043399999V0201801N0010199999999019000199-02671-02981103741ADDAA106999999AA224999999MA1999999097791MD1210061+9999REMSYN004BUFR
0052501360999992018010221004+52970+122530FM-12+043399999V0201801N0010199999999026000199-02851-03191103791ADDAA106999999AA224999999MD1710011+9999REMSYN004BUFR
0169501360999992018010300004+52970+122530FM-12+043399999V0201401N00101026001C9003800199-02831-03181103911ADDAA124070091AJ199999999999999GA1051+026001101GA2999+999999101GA3999+999999101GE19MSL   +99999+99999GF105991051999026001999999MA1999999097831MD1210051+0501REMSYN004BUFR
0148501360999992018010303004+52970+122530FM-12+043399999V0201101N0010122000199003400199-02151-02531103791ADDAA106999999AA224999999GA1021+026001101GA2999+999999101GA3999+999999101GE19MSL   +99999+99999GF102991021999026001999999MD1710081+9999REMSYN004BUFR
0106501360999992018010306004+52970+122530FM-12+043399999V0202201N0010122000199002900199-01201-02061103481ADDAA106999999AA224999999GF100991999999999999999999KA1240N-02941MA1999999097551MD1710201+9999REMSYN004BUFR
0078501360999992018010309004+52970+122530FM-12+043399999V0202501N0010122000199021000199-01741-02271103571ADDAA106999999AA224999999GF100991999999999999999999MD1410001+9999REMSYN004BUFR
0093501360999992018010312004+52970+122530FM-12+043399999V0202001N0010122000199030000199-02291-02571103581ADDAA106999999AA224999999GF100991999999999999999999MA1999999097501MD1710051+9999REMSYN004BUFR
0052501360999992018010315004+52970+122530FM-12+043399999V0203601N0000199999999019000199-02491-02771103451ADDAA106999999AA224999999MD1710061+9999REMSYN004BUFR
0089501360999992018010318004+52970+122530FM-12+043399999V0203601N0000199999999008000199-02681-02991103291ADDAA106999999AA224999999AY101061AY201061MA1999999097371MD1710071+9999MW1051REMSYN004BUFR
0052501360999992018010321004+52970+122530FM-12+043399999V0203601N0000199999999015000199-02801-03171103171ADDAA106999999AA224999999MD1710191+9999REMSYN004BUFR
0169501360999992018010400004+52970+122530FM-12+043399999V0200701N0010122000199003800199-02801-03141103181ADDAA124070091AJ199999999999999GA1021+026001101GA2999+999999101GA3999+999999101GE19MSL   +99999+99999GF102991021999026001999999MA1999999097131MD1710051-0701REMSYN004BUFR
0148501360999992018010403004+52970+122530FM-12+043399999V0202501N0030122000199030000199-01422-02131102861ADDAA106999999AA224999999GA1041+026001101GA2999+999999101GA3999+999999101GE19MSL   +99999+99999GF104991041999026001999999MD1710171+9999REMSYN004BUFR
0176501360999992018010406004+52970+122530FM-12+043399999V0202201N0050122000199030000199-01072-01991102581ADDAA106999999AA224999999GA1031+026001101GA2999+999999101GA3999+999999101GE19MSL   +99999+99999GF103991031999026001999999KA1240N-02841MA1999999096721MD1710241+9999REMSYN004BUFR
0148501360999992018010409004+52970+122530FM-12+043399999V0202501N0020122000199030000199-01451-02091102571ADDAA106999999AA224999999GA1041+026001101GA2999+999999101GA3999+999999101GE19MSL   +99999+99999GF104991041999026001999999MD1710071+9999REMSYN004BUFR
0163501360999992018010412004+52970+122530FM-12+043399999V0202501N0010122000199020000199-02031-02391102561ADDAA106999999AA224999999GA1031+026001101GA2999+999999101GA3999+999999101GE19MSL   +99999+99999GF103991031999026001999999MA1999999096581MD1710071+9999REMSYN004BUFR
0052501360999992018010415004+52970+122530FM-12+043399999V0201601N0020199999999006000199-02391-02651102401ADDAA106999999AA224999999MD1710041+9999REMSYN004BUFR
0067501360999992018010418004+52970+122530FM-12+043399999V0200701N0010199999999022000199-02471-02771102361ADDAA106999999AA224999999MA1999999096531MD1710011+9999REMSYN004BUFR
0052501360999992018010421004+52970+122530FM-12+043399999V0200701N0010199999999014000199-02191-02491102351ADDAA106999999AA224999999MD1710021+9999REMSYN004BUFR
0169501360999992018010500004+52970+122530FM-12+043399999V0202001N00101026001C9002600199-02101-02391102431ADDAA124070091AJ199999999999999GA1071+026001101GA2999+999999101GA3999+999999101GE19MSL   +99999+99999GF107991071999026001999999MA1999999096531MD1210021-0601REMSYN004BUFR
0148501360999992018010503004+52970+122530FM-12+043399999V0200901N0010122000199002500199-01741-02251102351ADDAA106999999AA224999999GA1021+026001101GA2999+999999101GA3999+999999101GE19MSL   +99999+99999GF102991021999026001999999MD1710071+9999REMSYN004BUFR
0176501360999992018010506004+52970+122530FM-12+043399999V0202201N0030122000199030000199-01171-02011102061ADDAA106999999AA224999999GA1011+026001101GA2999+999999101GA3999+999999101GE19MSL   +99999+99999GF101991011999026001999999KA1240N-02611MA1999999096241MD1710221+9999REMSYN004BUFR
0148501360999992018010509004+52970+122530FM-12+043399999V0202901N0010122000199030000199-01741-02171102081ADDAA106999999AA224999999GA1011+026001101GA2999+999999101GA3999+999999101GE19MSL   +99999+99999GF101991011999026001999999MD1710011+9999REMSYN004BUFR
0163501360999992018010512004+52970+122530FM-12+043399999V0201601N0010122000199023000199-02241-02501102081ADDAA106999999AA224999999GA1031+026001101GA2999+999999101GA3999+999999101GE19MSL   +99999+99999GF103991031999026001999999MA1999999096181MD1710051+9999REMSYN004BUFR
0058501360999992018010515004+52970+122530FM-12+043399999V0203601N0000199999999999999999-02081-02351101951ADDAA106999999AA224999999MD1710061+9999MW1051REMSYN004BUFR
0067501360999992018010518004+52970+122530FM-12+043399999V0203601N0000199999999017000199-02441-02751101871ADDAA106999999AA224999999MA1999999096061MD1710061+9999REMSYN004BUFR
0052501360999992018010521004+52970+122530FM-12+043399999V0201801N0010199999999017000199-02571-02871101891ADDAA106999999AA224999999MD1710051+9999REMSYN004BUFR
0169501360999992018010600004+52970+122530FM-12+043399999V0203401N0010122000199007000199-02871-03221101981ADDAA124070091AJ199999999999999GA1021+026001101GA2999+999999101GA3999+999999101GE19MSL   +99999+99999GF102991021999026001999999MA1999999096001MD1710011-0501REMSYN004BUFR
0078501360999992018010603004+52970+122530FM-12+043399999V0200901N0020122000199002700199-01821-02251101791ADDAA106999999AA224999999GF100991999999999999999999MD1710041+9999REMSYN004BUFR
0176501360999992018010606004+52970+122530FM-12+043399999V0202201N00501026001C9030000199-00742-01761101491ADDAA106999999AA224999999GA1061+026001101GA2999+999999101GA3999+999999101GE19MSL   +99999+99999GF106991061999026001999999KA1240N-02881MA1999999095751MD1710211+9999REMSYN004BUFR
0148501360999992018010609004+52970+122530FM-12+043399999V0202501N00401026001C9030000199-00991-01811101491ADDAA106999999AA224999999GA1061+026001101GA2999+999999101GA3999+999999101GE19MSL   +99999+99999GF106991061999026001999999MD1710041+9999REMSYN004BUFR
0163501360999992018010612004+52970+122530FM-12+043399999V0200701N00101026001C9002600199-01501-01981101571ADDAA106999999AA224999999GA1061+026001101GA2999+999999101GA3999+999999101GE19MSL   +99999+99999GF106991061999026001999999MA1999999095701MD1710011+9999REMSYN004BUFR
0052501360999992018010615004+52970+122530FM-12+043399999V0201801N0010199999999007000199-01741-02141101481ADDAA106999999AA224999999MD1410001+9999REMSYN004BUFR
0067501360999992018010618004+52970+122530FM-12+043399999V0201101N0010199999999028000199-02121-02421101391ADDAA106999999AA224999999MA1999999095691MD1710011+9999REMSYN004BUFR
0052501360999992018010621004+52970+122530FM-12+043399999V0203601N0000199999999028000199-02191-02471101431ADDAA106999999AA224999999MD1210011+9999REMSYN004BUFR
0169501360999992018010700004+52970+122530FM-12+043399999V0203601N00101026001C9025000199-02241-02531101571ADDAA124070091AJ199999999999999GA1071+026001101GA2999+999999101GA3999+999999101GE19MSL   +99999+99999GF107991071999026001999999MA1999999095771MD1210071-0201REMSYN004BUFR
0148501360999992018010703004+52970+122530FM-12+043399999V0200401N00101026001C9999999999-01831-02151101571ADDAA106999999AA224999999GA1071+026001101GA2999+999999101GA3999+999999101GE19MSL   +99999+99999GF107991071999026001999999MD1210021+9999REMSYN004BUFR
0204501360999992018010706004+52970+122530FM-12+043399999V0200401N00101026001C9002200199-01471-01791101561ADDAA124070091AJ199999999999999AY171061AY201061GA1081+026001101GA2999+999999101GA3999+999999101GE19MSL   +99999+99999GF108991081999026001999999KA1240N-02291MA1999999095771MD1710021+9999MW1701REMSYN004BUFR
0165501360999992018010709004+52970+122530FM-12+043399999V0201601N00101026001C9002900199-01571-01831101711ADDAJ100079100070099AY171031AY271031GA1081+026001101GA2999+999999101GA3999+999999101GE19MSL   +99999+99999GF108991081999026001999999MD1210131+9999MW1701REMSYN004BUFR
0180501360999992018010712004+52970+122530FM-12+043399999V0203601N00001026001C9004400199-02341-02681101911ADDAJ100003100000099AY171061AY201061GA1081+026001101GA2999+999999101GA3999+999999101GE19MSL   +99999+99999GF108991081999026001999999MA1999999095991MD1210091+9999MW1001REMSYN004BUFR
0052501360999992018010715004+52970+122530FM-12+043399999V0201801N0010199999999013000199-02751-03081101991ADDAA106999999AA224999999MD1210081+9999REMSYN004BUFR
0067501360999992018010718004+52970+122530FM-12+043399999V0202901N0010199999999010000199-02831-03151102001ADDAA106999999AA224999999MA1999999096111MD1210041+9999REMSYN004BUFR
0058501360999992018010721004+52970+122530FM-12+043399999V0202201N0010199999999004600199-02441-02741101861ADDAA106999999AA224000231MD1710101+9999MW1051REMSYN004BUFR
0169501360999992018010800004+52970+122530FM-12+043399999V0202501N00101026001C9004800199-02421-02721101981ADDAA124000231AJ100079100070099GA1071+026001101GA2999+999999101GA3999+999999101GE19MSL   +99999+99999GF107991071999026001999999MA1999999096041MD1210031+0301REMSYN004BUFR
0165501360999992018010803004+52970+122530FM-12+043399999V0203601N00001026001C9007000199-02001-02381101911ADDAJ100079100070099AY171031AY201031GA1081+026001101GA2999+999999101GA3999+999999101GE19MSL   +99999+99999GF108991081999026001999999MD1710071+9999MW1701REMSYN004BUFR
0193501360999992018010806004+52970+122530FM-12+043399999V0202701N00101026001C9014000199-01601-02121101771ADDAJ100003100000099AY171061AY201061GA1081+026001101GA2999+999999101GA3999+999999101GE19MSL   +99999+99999GF108991081999026001999999KA1240N-02951MA1999999095881MD1710091+9999MW1221REMSYN004BUFR
0126501360999992018010809004+52970+122530FM-12+043399999V0202501N00101017501C9016000199-02491-02801101931ADDGA1071+017501101GA2999+999999101GA3999+999999101GE19MSL   +99999+99999GF107991071999017501999999MD1210091+9999REMSYN004BUFR
0163501360999992018010812004+52970+122530FM-12+043399999V0203201N00101017501C9030000199-02881-03181102041ADDAA106999999AA224999999GA1071+017501101GA2999+999999101GA3999+999999101GE19MSL   +99999+99999GF107991071999017501999999MA1999999096031MD1210061+9999REMSYN004BUFR
0058501360999992018010815004+52970+122530FM-12+043399999V0201801N0010199999999006000199-03131-03451102021ADDAA106999999AA224999999MD1410001+9999MW1051REMSYN004BUFR
0067501360999992018010818004+52970+122530FM-12+043399999V0201801N0010199999999013000199-03371-03731102011ADDAA106999999AA224999999MA1999999096041MD1210011+9999REMSYN004BUFR
0052501360999992018010821004+52970+122530FM-12+043399999V0202201N0010199999999012000199-03431-03791102111ADDAA106999999AA224000231MD1710011+9999REMSYN004BUFR
0169501360999992018010900004+52970+122530FM-12+043399999V0202001N00101026001C9999999999-03551-03941102351ADDAA124000231AJ100079100070099GA1081+026001101GA2999+999999101GA3999+999999101GE19MSL   +99999+99999GF108991081999026001999999MA1999999096191MD1210161+0201REMSYN004BUFR
0148501360999992018010903004+52970+122530FM-12+043399999V0201801N00101026001C9999999999-02831-03181102301ADDAA106999999AA224999999GA1051+026001101GA2999+999999101GA3999+999999101GE19MSL   +99999+99999GF105991051999026001999999MD1210011+9999REMSYN004BUFR
0176501360999992018010906004+52970+122530FM-12+043399999V0203401N00501026001C9030000199-01931-02831102261ADDAA106999999AA224999999GA1061+026001101GA2999+999999101GA3999+999999101GE19MSL   +99999+99999GF106991061999026001999999KA1240N-03601MA1999999096241MD1210041+9999REMSYN004BUFR
0148501360999992018010909004+52970+122530FM-12+043399999V0203201N00301026001C9023000199-02141-03051102541ADDAA106999999AA224999999GA1051+026001101GA2999+999999101GA3999+999999101GE19MSL   +99999+99999GF105991051999026001999999MD1210231+9999REMSYN004BUFR
0163501360999992018010912004+52970+122530FM-12+043399999V0203201N0040122000199030000199-02251-03131102731ADDAA106999999AA224999999GA1021+026001101GA2999+999999101GA3999+999999101GE19MSL   +99999+99999GF102991021999026001999999MA1999999096621MD1210151+9999REMSYN004BUFR
0052501360999992018010915004+52970+122530FM-12+043399999V0203201N0020199999999030000199-02481-03311102751ADDAA106999999AA224999999MD1210081+9999REMSYN004BUFR
0067501360999992018010918004+52970+122530FM-12+043399999V0202901N0030199999999030000199-02601-03371102791ADDAA106999999AA224999999MA1999999096831MD1210131+9999REMSYN004BUFR
0052501360999992018010921004+52970+122530FM-12+043399999V0202901N0040199999999030000199-02601-03371102911ADDAA106999999AA224999999MD1210091+9999REMSYN004BUFR
0169501360999992018011000004+52970+122530FM-12+043399999V0202501N0030122000199030000199-02891-03431103121ADDAA124070091AJ199999999999999GA1021+026001101GA2999+999999101GA3999+999999101GE19MSL   +99999+99999GF102991021999026001999999MA1999999097071MD1210151+0901REMSYN004BUFR
0078501360999992018011003004+52970+122530FM-12+043399999V0203401N0060122000199030000199-02241-03241103121ADDAA106999999AA224999999GF100991999999999999999999MD1210051+9999REMSYN004BUFR
0176501360999992018011006004+52970+122530FM-12+043399999V0203401N0040122000199030000199-02081-03201103141ADDAA106999999AA224999999GA1021+026001101GA2999+999999101GA3999+999999101GE19MSL   +99999+99999GF102991021999026001999999KA1240N-02921MA1999999097141MD1210021+9999REMSYN004BUFR
0078501360999992018011009004+52970+122530FM-12+043399999V0202501N0020122000199030000199-02441-03201103301ADDAA106999999AA224999999GF100991999999999999999999MD1210111+9999REMSYN004BUFR
0093501360999992018011012004+52970+122530FM-12+043399999V0202901N0020122000199030000199-03241-03641103551ADDAA106999999AA224999999GF100991999999999999999999MA1999999097351MD1210101+9999REMSYN004BUFR
0052501360999992018011015004+52970+122530FM-12+043399999V0202501N0010199999999029000199-03371-03941103441ADDAA106999999AA224999999MD1710041+9999REMSYN004BUFR
0067501360999992018011018004+52970+122530FM-12+043399999V0201401N0010199999999008000199-03571-03951103401ADDAA106999999AA224999999MA1999999097271MD1710041+9999REMSYN004BUFR
0052501360999992018011021004+52970+122530FM-12+043399999V0203601N0000199999999001500199-03831-04241103351ADDAA106999999AA224999999MD1710121+9999REMSYN004BUFR
0169501360999992018011100004+52970+122530FM-12+043399999V0202001N0010122000199000400199-03891-04291103391ADDAA124070091AJ199999999999999GA1021+026001101GA2999+999999101GA3999+999999101GE19MSL   +99999+99999GF102991021999026001999999MA1999999097081MD1710071+0001REMSYN004BUFR
0148501360999992018011103004+52970+122530FM-12+043399999V0201101N0010122000199004600199-02901-03281103061ADDAA106999999AA224999999GA1021+026001101GA2999+999999101GA3999+999999101GE19MSL   +99999+99999GF102991021999026001999999MD1710211+9999REMSYN004BUFR
0176501360999992018011106004+52970+122530FM-12+043399999V0200401N0010122000199024000199-02051-02971102671ADDAA106999999AA224999999GA1041+026001101GA2999+999999101GA3999+999999101GE19MSL   +99999+99999GF104991041999026001999999KA1240N-03931MA1999999096591MD1710281+9999REMSYN004BUFR
0148501360999992018011109004+52970+122530FM-12+043399999V0202701N0010122000199005000199-02591-03181102751ADDAA106999999AA224999999GA1041+026001101GA2999+999999101GA3999+999999101GE19MSL   +99999+99999GF104991041999026001999999MD1710031+9999REMSYN004BUFR
0163501360999992018011112004+52970+122530FM-12+043399999V0200901N0010122000199001700199-02601-02981102681ADDAA106999999AA224999999GA1021+026001101GA2999+999999101GA3999+999999101GE19MSL   +99999+99999GF102991021999026001999999MA1999999096491MD1710071+9999REMSYN004BUFR
0058501360999992018011115004+52970+122530FM-12+043399999V0202201N0010199999999009000199-03081-03451102571ADDAA106999999AA224999999MD1710041+9999MW1051REMSYN004BUFR
0089501360999992018011118004+52970+122530FM-12+043399999V0203601N0000199999999009000199-03271-03631102531ADDAA106999999AA224999999AY101061AY201061MA1999999096491MD1210041+9999MW1051REMSYN004BUFR
0052501360999992018011121004+52970+122530FM-12+043399999V0203601N0000199999999007000199-03391-03771102611ADDAA106999999AA224999999MD1410001+9999REMSYN004BUFR
0169501360999992018011200004+52970+122530FM-12+043399999V0202701N00101026001C9008000199-03571-03951102791ADDAA124070091AJ199999999999999GA1051+026001101GA2999+999999101GA3999+999999101GE19MSL   +99999+99999GF105991051999026001999999MA1999999096631MD1210141-0501REMSYN004BUFR
0148501360999992018011203004+52970+122530FM-12+043399999V0203601N0000122000199003400199-02801-03221102811ADDAA106999999AA224999999GA1011+026001101GA2999+999999101GA3999+999999101GE19MSL   +99999+99999GF101991011999026001999999MD1210061+9999REMSYN004BUFR
0176501360999992018011206004+52970+122530FM-12+043399999V0201401N0010122000199011000199-01891-02731102711ADDAA106999999AA224999999GA1011+026001101GA2999+999999101GA3999+999999101GE19MSL   +99999+99999GF101991011999026001999999KA1240N-03581MA1999999096681MD1710011+9999REMSYN004BUFR
0148501360999992018011209004+52970+122530FM-12+043399999V0202201N0010122000199999999999-02651-03071102911ADDAA106999999AA224999999GA1011+026001101GA2999+999999101GA3999+999999101GE19MSL   +99999+99999GF101991011999026001999999MD1210081+9999REMSYN004BUFR
0093501360999992018011212004+52970+122530FM-12+043399999V0201601N0010122000199003300199-03031-03361103111ADDAA106999999AA224999999GF100991999999999999999999MA1999999096881MD1210121+9999REMSYN004BUFR
0106501360999992018011215004+52967+122533FM-12+043899999V0209999C99999002401WN004800199-03251-03601103041ADDGF109991999999999999999999MD1410001+9999MW1051REMSYN04850136 31/48 90000 11325 21360 40304 54000 705//=
0089501360999992018011218004+52970+122530FM-12+043399999V0203601N0010199999999005000199-03391-03761102891ADDAA106999999AA224999999AY101061AY201061MA1999999096831MD1710051+9999MW1051REMSYN004BUFR
0058501360999992018011221004+52970+122530FM-12+043399999V0202201N0010199999999002000199-03291-03671102761ADDAA106999999AA224999999MD1710201+9999MW1051REMSYN004BUFR
0169501360999992018011300004+52970+122530FM-12+043399999V0200201N00101026001C9004000199-03021-03381102611ADDAA124070091AJ199999999999999GA1071+026001101GA2999+999999101GA3999+999999101GE19MSL   +99999+99999GF107991071999026001999999MA1999999096481MD1710151-0201REMSYN004BUFR
0148501360999992018011303004+52970+122530FM-12+043399999V0200201N00101026001C9007000199-02671-03021102311ADDAA106999999AA224999999GA1081+026001101GA2999+999999101GA3999+999999101GE19MSL   +99999+99999GF108991081999026001999999MD1710271+9999REMSYN004BUFR
0193501360999992018011306004+52970+122530FM-12+043399999V0203201N00101026001C9001600199-02191-02551101851ADDAJ100003100000099AY101061AY201061GA1081+026001101GA2999+999999101GA3999+999999101GE19MSL   +99999+99999GF108991081999026001999999KA1240N-03401MA1999999095821MD1710391+9999MW1701REMSYN004BUFR
0165501360999992018011309004+52970+122530FM-12+043399999V0202901N00101026001C9009000199-02101-02451101551ADDAJ100079100070099AY171031AY271031GA1081+026001101GA2999+999999101GA3999+999999101GE19MSL   +99999+99999GF108991081999026001999999MD1710261+9999MW1221REMSYN004BUFR
0152501360999992018011312004+52970+122530FM-12+043399999V0202901N00101026001C9004500199-02171-02511101581ADDAA106000131GA1081+026001101GA2999+999999101GA3999+999999101GE19MSL   +99999+99999GF108991081999026001999999MA1999999095611MD1210051+9999REMSYN004BUFR
0052501360999992018011315004+52970+122530FM-12+043399999V0202501N0010199999999013000199-02321-02611101621ADDAA106999999AA224999999MD1210061+9999REMSYN004BUFR
0089501360999992018011318004+52970+122530FM-12+043399999V0202901N0010199999999999999999-02241-02581101711ADDAA106999999AA224999999AY101061AY201061MA1999999095821MD1210151+9999MW1051REMSYN004BUFR
0052501360999992018011321004+52970+122530FM-12+043399999V0201601N0010199999999014000199-02881-03231101901ADDAA106999999AA224000531MD1210121+9999REMSYN004BUFR
0169501360999992018011400004+52970+122530FM-12+043399999V0201401N0010122000199006000199-03181-03521102211ADDAA124000531AJ100079100070099GA1031+026001101GA2999+999999101GA3999+999999101GE19MSL   +99999+99999GF103991031999026001999999MA1999999096191MD1210251-0301REMSYN004BUFR
0148501360999992018011403004+52970+122530FM-12+043399999V0203601N0000122000199004900199-02541-03011102191ADDAA106999999AA224999999GA1011+026001101GA2999+999999101GA3999+999999101GE19MSL   +99999+99999GF101991011999026001999999MD1210041+9999REMSYN004BUFR
0176501360999992018011406004+52970+122530FM-12+043399999V0201801N0010122000199999999999-01721-02411102051ADDAA106999999AA224999999GA1011+026001101GA2999+999999101GA3999+999999101GE19MSL   +99999+99999GF101991011999026001999999KA1240N-03291MA1999999096201MD1710031+9999REMSYN004BUFR
0148501360999992018011409004+52970+122530FM-12+043399999V0202001N0010122000199003600199-02591-02901102311ADDAA106999999AA224999999GA1011+026001101GA2999+999999101GA3999+999999101GE19MSL   +99999+99999GF101991011999026001999999MD1210071+9999REMSYN004BUFR
0163501360999992018011412004+52970+122530FM-12+043399999V0201801N0010122000199006000199-03041-03371102521ADDAA106999999AA224999999GA1011+026001101GA2999+999999101GA3999+999999101GE19MSL   +99999+99999GF101991011999026001999999MA1999999096371MD1210101+9999REMSYN004BUFR
0058501360999992018011415004+52970+122530FM-12+043399999V0201801N0010199999999000800199-03381-03771102501ADDAA106999999AA224999999MD1210021+9999MW1051REMSYN004BUFR
0089501360999992018011418004+52970+122530FM-12+043399999V0201401N0010199999999001600199-03491-03871102401ADDAA106999999AA224999999AY101061AY201061MA1999999096381MD1710011+9999MW1051REMSYN004BUFR
0058501360999992018011421004+52970+122530FM-12+043399999V0202001N0010199999999001900199-03591-03961102521ADDAA106999999AA224999999MD1410001+9999MW1051REMSYN004BUFR
0169501360999992018011500004+52970+122530FM-12+043399999V0202001N0010122000199002100199-03681-04061102591ADDAA124070091AJ199999999999999GA1031+026001101GA2999+999999101GA3999+999999101GE19MSL   +99999+99999GF103991031999026001999999MA1999999096381MD1410001+0201REMSYN004BUFR
0148501360999992018011503004+52970+122530FM-12+043399999V0203601N0000122000199000900199-02941-03281102501ADDAA106999999AA224999999GA1011+026001101GA2999+999999101GA3999+999999101GE19MSL   +99999+99999GF101991011999026001999999MD1710041+9999REMSYN004BUFR
0106501360999992018011506004+52970+122530FM-12+043399999V0203601N0000122000199007000199-02091-02661102171ADDAA106999999AA224999999GF100991999999999999999999KA1240N-03691MA1999999096121MD1710221+9999REMSYN004BUFR
0078501360999992018011509004+52970+122530FM-12+043399999V0201801N0010122000199004000199-02631-02911102241ADDAA106999999AA224999999GF100991999999999999999999MD1710011+9999REMSYN004BUFR
0093501360999992018011512004+52970+122530FM-12+043399999V0201801N0010122000199003800199-03091-03401102341ADDAA106999999AA224999999GF100991999999999999999999MA1999999096141MD1210031+9999REMSYN004BUFR
0058501360999992018011515004+52970+122530FM-12+043399999V0202201N0010199999999002700199-03381-03721102291ADDAA106999999AA224999999MD1210011+9999MW1051REMSYN004BUFR
0089501360999992018011518004+52970+122530FM-12+043399999V0202201N0010199999999001700199-03581-03961102151ADDAA106999999AA224999999AY101061AY201061MA1999999096091MD1710061+9999MW1051REMSYN004BUFR
0058501360999992018011521004+52970+122530FM-12+043399999V0203601N0000199999999004600199-03691-04081102171ADDAA106999999AA224999999MD1710061+9999MW1051REMSYN004BUFR
0169501360999992018011600004+52970+122530FM-12+043399999V0203601N00001026001C9010000199-03741-04141102211ADDAA124070091AJ199999999999999GA1051+026001101GA2999+999999101GA3999+999999101GE19MSL   +99999+99999GF105991051999026001999999MA1999999096011MD1710021-0401REMSYN004BUFR
0148501360999992018011603004+52970+122530FM-12+043399999V0200401N0010122000199002200199-03041-03401102081ADDAA106999999AA224999999GA1041+026001101GA2999+999999101GA3999+999999101GE19MSL   +99999+99999GF104991041999026001999999MD1710071+9999REMSYN004BUFR
0176501360999992018011606004+52970+122530FM-12+043399999V0200201N0010122000199006000199-02431-02881101811ADDAA106999999AA224999999GA1041+026001101GA2999+999999101GA3999+999999101GE19MSL   +99999+99999GF104991041999026001999999KA1240N-03751MA1999999095731MD1710211+9999REMSYN004BUFR
0148501360999992018011609004+52970+122530FM-12+043399999V0201801N0010122000199001300199-02731-03041101801ADDAA106999999AA224999999GA1021+026001101GA2999+999999101GA3999+999999101GE19MSL   +99999+99999GF102991021999026001999999MD1710061+9999REMSYN004BUFR
0163501360999992018011612004+52970+122530FM-12+043399999V0203601N0000122000199004600199-02991-03331101851ADDAA106999999AA224999999GA1031+026001101GA2999+999999101GA3999+999999101GE19MSL   +99999+99999GF103991031999026001999999MA1999999095681MD1210011+9999REMSYN004BUFR
0058501360999992018011615004+52970+122530FM-12+043399999V0202201N0010199999999007000199-02751-03081101761ADDAA106999999AA224999999MD1210031+9999MW1051REMSYN004BUFR
0078501360999992018011618004+52970+122530FM-12+043399999V0203401N0010199999999004000199-02581-02911101591ADDAA106000231AY101061AY201061MA1999999095641MD1710071+9999MW1051REMSYN004BUFR
0047501360999992018011621004+52970+122530FM-12+043399999V0202701N0010199999999004300199-02641-02951101631ADDAA124000331MD1410001+9999MW1051REMSYN004BUFR
0169501360999992018011700004+52970+122530FM-12+043399999V0202701N00101026001C9010000199-02791-03121101801ADDAA124000331AJ100003100000099GA1061+026001101GA2999+999999101GA3999+999999101GE19MSL   +99999+99999GF106991061999026001999999MA1999999095751MD1210111-0301REMSYN004BUFR
0148501360999992018011703004+52970+122530FM-12+043399999V0200201N0010122000199013000199-02441-02861101741ADDAA106999999AA224999999GA1031+026001101GA2999+999999101GA3999+999999101GE19MSL   +99999+99999GF103991031999026001999999MD1210011+9999REMSYN004BUFR
0176501360999992018011706004+52970+122530FM-12+043399999V0200401N00101026001C9012000199-01981-02631101571ADDAA106999999AA224999999GA1061+026001101GA2999+999999101GA3999+999999101GE19MSL   +99999+99999GF106991061999026001999999KA1240N-03021MA1999999095681MD1710081+9999REMSYN004BUFR
0148501360999992018011709004+52970+122530FM-12+043399999V0201601N00101026001C9007000199-02651-02941101771ADDAA106999999AA224999999GA1051+026001101GA2999+999999101GA3999+999999101GE19MSL   +99999+99999GF105991051999026001999999MD1210101+9999REMSYN004BUFR
0163501360999992018011712004+52970+122530FM-12+043399999V0201601N0010122000199002600199-03151-03471101961ADDAA106999999AA224999999GA1041+026001101GA2999+999999101GA3999+999999101GE19MSL   +99999+99999GF104991041999026001999999MA1999999095881MD1210101+9999REMSYN004BUFR
0058501360999992018011715004+52970+122530FM-12+043399999V0202201N0010199999999004200199-03591-03941101991ADDAA106999999AA224999999MD1210021+9999MW1051REMSYN004BUFR
0089501360999992018011718004+52970+122530FM-12+043399999V0201601N0010199999999000900199-03741-04131102001ADDAA106999999AA224999999AY101061AY201061MA1999999095951MD1210051+9999MW1051REMSYN004BUFR
0052501360999992018011721004+52970+122530FM-12+043399999V0202201N0010199999999000400199-03891-04291102101ADDAA106999999AA224999999MD1710011+9999REMSYN004BUFR
0169501360999992018011800004+52970+122530FM-12+043399999V0203601N00001026001C9000800199-03941-04361102251ADDAA124080091AJ199999999999999GA1081+026001101GA2999+999999101GA3999+999999101GE19MSL   +99999+99999GF108991081999026001999999MA1999999096011MD1210071+0301REMSYN004BUFR
0148501360999992018011803004+52970+122530FM-12+043399999V0203601N0010122000199001400199-03341-03711102131ADDAA106999999AA224999999GA1021+026001101GA2999+999999101GA3999+999999101GE19MSL   +99999+99999GF102991021999026001999999MD1710091+9999REMSYN004BUFR
0176501360999992018011806004+52970+122530FM-12+043399999V0200201N0010122000199006000199-02591-02981101841ADDAA106999999AA224999999GA1021+026001101GA2999+999999101GA3999+999999101GE19MSL   +99999+99999GF102991021999026001999999KA1240N-03991MA1999999095721MD1710201+9999REMSYN004BUFR
0148501360999992018011809004+52970+122530FM-12+043399999V0202001N00101026001C9002700199-02671-02981101921ADDAA106999999AA224999999GA1081+026001101GA2999+999999101GA3999+999999101GE19MSL   +99999+99999GF108991081999026001999999MD1210051+9999REMSYN004BUFR
0163501360999992018011812004+52970+122530FM-12+043399999V0203601N00001026001C9002800199-02981-03321101981ADDAA106999999AA224999999GA1051+026001101GA2999+999999101GA3999+999999101GE19MSL   +99999+99999GF105991051999026001999999MA1999999095781MD1210011+9999REMSYN004BUFR
0058501360999992018011815004+52970+122530FM-12+043399999V0202201N0010199999999003100199-02881-03211101911ADDAA106999999AA224999999MD1210021+9999MW1051REMSYN004BUFR
0078501360999992018011818004+52970+122530FM-12+043399999V0203601N0010199999999001100199-02741-03091101801ADDAA106000431AY101061AY201061MA1999999095801MD1410001+9999MW1051REMSYN004BUFR
0047501360999992018011821004+52970+122530FM-12+043399999V0202701N0010199999999003200199-02591-02931101721ADDAA124001231MD1710061+9999MW1051REMSYN004BUFR
0175501360999992018011900004+52970+122530FM-12+043399999V0200201N00101026001C9011000199-02681-03021101761ADDAA124001731AJ100003100001099GA1081+026001101GA2999+999999101GA3999+999999101GE19MSL   +99999+99999GF108991081999026001999999MA1999999095731MD1710011-0301MW1701REMSYN004BUFR
0165501360999992018011903004+52970+122530FM-12+043399999V0203401N00201026001C9002900199-02441-02841101731ADDAJ100099100090099AY171031AY271031GA1081+026001101GA2999+999999101GA3999+999999101GE19MSL   +99999+99999GF108991081999026001999999MD1210011+9999MW1701REMSYN004BUFR
0193501360999992018011906004+52970+122530FM-12+043399999V0202901N00301026001C9002700199-02291-02761101721ADDAJ100003100001099AY171061AY271061GA1081+026001101GA2999+999999101GA3999+999999101GE19MSL   +99999+99999GF108991081999026001999999KA1240N-03171MA1999999095761MD1210021+9999MW1701REMSYN004BUFR
0165501360999992018011909004+52970+122530FM-12+043399999V0202001N00101026001C9001700199-02671-02991101911ADDAJ100099100090099AY171031AY201031GA1081+026001101GA2999+999999101GA3999+999999101GE19MSL   +99999+99999GF108991081999026001999999MD1210151+9999MW1001REMSYN004BUFR
0185501360999992018011912004+52970+122530FM-12+043399999V0203601N00001026001C9004500199-02931-03251102081ADDAA106999999AA224999999AY171061AY201061GA1081+026001101GA2999+999999101GA3999+999999101GE19MSL   +99999+99999GF108991081999026001999999MA1999999096031MD1210121+9999MW1001REMSYN004BUFR
0036501360999992018011915004+52970+122530FM-12+043399999V0202501N0010199999999999999999-02741-03071102091ADDMD1210061+9999MW1051REMSYN004BUFR
0056501360999992018011918004+52970+122530FM-12+043399999V0203401N0020199999999004900199-02491-02841102131ADDAA106000631MA1999999096181MD1210091+9999REMSYN004BUFR
0047501360999992018011921004+52970+122530FM-12+043399999V0203201N0020199999999006000199-02571-02941102331ADDAA124001731MD1210131+9999MW1051REMSYN004BUFR
0169501360999992018012000004+52970+122530FM-12+043399999V0202901N00301026001C9013000199-02621-03051102621ADDAA124001231AJ100003100000099GA1071+026001101GA2999+999999101GA3999+999999101GE19MSL   +99999+99999GF107991071999026001999999MA1999999096551MD1210241+0801REMSYN004BUFR
0148501360999992018012003004+52970+122530FM-12+043399999V0203201N0040122000199014000199-02491-03081102721ADDAA106999999AA224999999GA1031+026001101GA2999+999999101GA3999+999999101GE19MSL   +99999+99999GF103991031999026001999999MD1210131+9999REMSYN004BUFR
0176501360999992018012006004+52970+122530FM-12+043399999V0203201N0040122000199030000199-02341-03071102751ADDAA106999999AA224999999GA1021+026001101GA2999+999999101GA3999+999999101GE19MSL   +99999+99999GF102991021999026001999999KA1240N-02981MA1999999096761MD1210081+9999REMSYN004BUFR
0148501360999992018012009004+52970+122530FM-12+043399999V0202701N0030122000199030000199-02651-03171103011ADDAA106999999AA224999999GA1021+026001101GA2999+999999101GA3999+999999101GE19MSL   +99999+99999GF102991021999026001999999MD1210191+9999REMSYN004BUFR
0093501360999992018012012004+52970+122530FM-12+043399999V0202501N0040122000199030000199-02941-03331103171ADDAA106999999AA224999999GF100991999999999999999999MA1999999097071MD1210121+9999REMSYN004BUFR
0058501360999992018012015004+52970+122530FM-12+043399999V0202201N0020199999999001400199-03421-03761103241ADDAA106999999AA224999999MD1210021+9999MW1051REMSYN004BUFR
0067501360999992018012018004+52970+122530FM-12+043399999V0203601N0000199999999000600199-03801-04201103281ADDAA106999999AA224999999MA1999999097101MD1210011+9999REMSYN004BUFR
0052501360999992018012021004+52970+122530FM-12+043399999V0201801N0010199999999000500199-03991-04401103301ADDAA106999999AA224999999MD1710051+9999REMSYN004BUFR
0099501360999992018012100004+52970+122530FM-12+043399999V0201801N0010122000199000600199-04131-04551103391ADDAA124100092AJ199999999999999GF100991999999999999999999MA1999999097091MD1210041+0501REMSYN004BUFR
0148501360999992018012103004+52970+122530FM-12+043399999V0200901N0010122000199002000199-03241-03661103261ADDAA106999999AA224999999GA1021+026001101GA2999+999999101GA3999+999999101GE19MSL   +99999+99999GF102991021999026001999999MD1710081+9999REMSYN004BUFR
0176501360999992018012106004+52970+122530FM-12+043399999V0202701N0040122000199030000199-02541-03461103001ADDAA106999999AA224999999GA1031+026001101GA2999+999999101GA3999+999999101GE19MSL   +99999+99999GF103991031999026001999999KA1240N-04151MA1999999096811MD1710201+9999REMSYN004BUFR
0148501360999992018012109004+52970+122530FM-12+043399999V0202001N0010122000199030000199-02941-03561103051ADDAA106999999AA224999999GA1031+026001101GA2999+999999101GA3999+999999101GE19MSL   +99999+99999GF103991031999026001999999MD1710031+9999REMSYN004BUFR
0163501360999992018012112004+52970+122530FM-12+043399999V0203601N0000122000199000200199-03601-03971103131ADDAA106999999AA224999999GA1021+026001101GA2999+999999101GA3999+999999101GE19MSL   +99999+99999GF102991021999026001999999MA1999999096751MD1710031+9999REMSYN004BUFR
0052501360999992018012115004+52970+122530FM-12+043399999V0203601N0000199999999000200199-03881-04291102951ADDAA106999999AA224999999MD1710091+9999REMSYN004BUFR
0067501360999992018012118004+52970+122530FM-12+043399999V0202201N0010199999999000400199-04091-04511102811ADDAA106999999AA224999999MA1999999096601MD1710061+9999REMSYN004BUFR
0052501360999992018012121004+52970+122530FM-12+043399999V0201801N0010199999999000400199-04291-04721102841ADDAA106999999AA224999999MD1710051+9999REMSYN004BUFR
0169501360999992018012200004+52970+122530FM-12+043399999V0201801N0010122000199000800199-04371-04791102951ADDAA124100092AJ199999999999999GA1031+026001101GA2999+999999101GA3999+999999101GE19MSL   +99999+99999GF103991031999026001999999MA1999999096551MD1410001-0501REMSYN004BUFR
0148501360999992018012203004+52970+122530FM-12+043399999V0202001N0010122000199030000199-03321-03692102701ADDAA106999999AA224999999GA1011+026001101GA2999+999999101GA3999+999999101GE19MSL   +99999+99999GF101991011999026001999999MD1710131+9999REMSYN004BUFR
0176501360999992018012206004+52970+122530FM-12+043399999V0202901N0040122000199030000199-02632-03641102501ADDAA106999999AA224999999GA1011+026001101GA2999+999999101GA3999+999999101GE19MSL   +99999+99999GF101991011999026001999999KA1240N-04451MA1999999096291MD1710131+9999REMSYN004BUFR
0078501360999992018012209004+52970+122530FM-12+043399999V0202501N0020122000199030000199-03091-03801102651ADDAA106999999AA224999999GF100991999999999999999999MD1210061+9999REMSYN004BUFR
0163501360999992018012212004+52970+122530FM-12+043399999V0202501N0020122000199015000199-03541-03961102751ADDAA106999999AA224999999GA1011+026001101GA2999+999999101GA3999+999999101GE19MSL   +99999+99999GF101991011999026001999999MA1999999096371MD1210021+9999REMSYN004BUFR
0058501360999992018012215004+52970+122530FM-12+043399999V0202001N0010199999999002000199-03921-04341102651ADDAA106999999AA224999999MD1410001+9999MW1051REMSYN004BUFR
0067501360999992018012218004+52970+122530FM-12+043399999V0203601N0000199999999000500199-04251-04691102581ADDAA106999999AA224999999MA1999999096351MD1710021+9999REMSYN004BUFR
0052501360999992018012221004+52970+122530FM-12+043399999V0203601N0000199999999000100199-04491-04921102721ADDAA106999999AA224999999MD1210041+9999REMSYN004BUFR
0169501360999992018012300004+52970+122530FM-12+043399999V0201601N0010122000199000500199-04391-04821102911ADDAA124100092AJ199999999999999GA1011+026001101GA2999+999999101GA3999+999999101GE19MSL   +99999+99999GF101991011999026001999999MA1999999096521MD1210131+0001REMSYN004BUFR
0148501360999992018012303004+52970+122530FM-12+043399999V0201801N00101026001C9002200199-03641-04051102821ADDAA106999999AA224999999GA1071+026001101GA2999+999999101GA3999+999999101GE19MSL   +99999+99999GF107991071999026001999999MD1710031+9999REMSYN004BUFR
0176501360999992018012306004+52970+122530FM-12+043399999V0200201N00101026001C9005000199-02831-03401102691ADDAA106999999AA224999999GA1071+026001101GA2999+999999101GA3999+999999101GE19MSL   +99999+99999GF107991071999026001999999KA1240N-04521MA1999999096431MD1710061+9999REMSYN004BUFR
0148501360999992018012309004+52970+122530FM-12+043399999V0202701N00201026001C9030000199-02781-03411102841ADDAA106999999AA224999999GA1071+026001101GA2999+999999101GA3999+999999101GE19MSL   +99999+99999GF107991071999026001999999MD1210111+9999REMSYN004BUFR
0163501360999992018012312004+52970+122530FM-12+043399999V0203601N00001026001C9023000199-03151-03501102991ADDAA106999999AA224999999GA1071+026001101GA2999+999999101GA3999+999999101GE19MSL   +99999+99999GF107991071999026001999999MA1999999096651MD1210111+9999REMSYN004BUFR
0058501360999992018012315004+52970+122530FM-12+043399999V0203601N0000199999999000800199-03701-04101103061ADDAA106999999AA224999999MD1210091+9999MW1051REMSYN004BUFR
0067501360999992018012318004+52970+122530FM-12+043399999V0203601N0000199999999000200199-04171-04601103191ADDAA106999999AA224999999MA1999999096911MD1210171+9999REMSYN004BUFR
0052501360999992018012321004+52970+122530FM-12+043399999V0201601N0010199999999000300199-04351-04801103381ADDAA106999999AA224999999MD1210161+9999REMSYN004BUFR
0175501360999992018012400004+52970+122530FM-12+043399999V0203601N00001026001C9000400199-04521-04951103651ADDAA124100092AJ199999999999999GA1071+026001101GA2999+999999101GA3999+999999101GE19MSL   +99999+99999GF107991071999026001999999MA1999999097251MD1210181+0701MW1421REMSYN004BUFR
0170501360999992018012403004+52970+122530FM-12+043399999V0203601N0000122000199000200199-03691-04091103721ADDAA106999999AA224999999AY141031AY241031GA1031+026001101GA2999+999999101GA3999+999999101GE19MSL   +99999+99999GF103991031999026001999999MD1210101+9999MW1421REMSYN004BUFR
0198501360999992018012406004+52970+122530FM-12+043399999V0203401N00201026001C9018000199-02831-03611103731ADDAA106999999AA224999999AY141061AY201061GA1061+026001101GA2999+999999101GA3999+999999101GE19MSL   +99999+99999GF106991061999026001999999KA1240N-04521MA1999999097411MD1210061+9999MW1001REMSYN004BUFR
0148501360999992018012409004+52970+122530FM-12+043399999V0202501N0020122000199030000199-03251-03841103971ADDAA106999999AA224999999GA1021+026001101GA2999+999999101GA3999+999999101GE19MSL   +99999+99999GF102991021999026001999999MD1210151+9999REMSYN004BUFR
0115501360999992018012412004+52970+122530FM-12+043399999V0203601N0000122000199000600199-03901-04341104231ADDAA106999999AA224999999AY101061AY201061GF100991999999999999999999MA1999999097691MD1210131+9999MW1461REMSYN004BUFR
0052501360999992018012415004+52970+122530FM-12+043399999V0203601N0000199999999000100199-04231-04661104241ADDAA106999999AA224999999MD1210081+9999REMSYN004BUFR
0067501360999992018012418004+52970+122530FM-12+043399999V0201801N0010199999999000400199-04371-04801104231ADDAA106999999AA224999999MA1999999097861MD1210091+9999REMSYN004BUFR
0052501360999992018012421004+52970+122530FM-12+043399999V0201401N0010199999999000200199-04451-04891104351ADDAA106999999AA224999999MD1210041+9999REMSYN004BUFR
0175501360999992018012500004+52970+122530FM-12+043399999V0202201N00101026001C9000500199-04541-04991104561ADDAA124100092AJ199999999999999GA1071+026001101GA2999+999999101GA3999+999999101GE19MSL   +99999+99999GF107991071999026001999999MA1999999098001MD1210101+0801MW1421REMSYN004BUFR
0170501360999992018012503004+52970+122530FM-12+043399999V0203601N00001026001C9000300199-03791-04191104521ADDAA106999999AA224999999AY141031AY241031GA1051+026001101GA2999+999999101GA3999+999999101GE19MSL   +99999+99999GF105991051999026001999999MD1210021+9999MW1421REMSYN004BUFR
0198501360999992018012506004+52970+122530FM-12+043399999V0202501N0030122000199027000199-02542-03471104321ADDAA106999999AA224999999AY141061AY201061GA1021+026001101GA2999+999999101GA3999+999999101GE19MSL   +99999+99999GF102991021999026001999999KA1240N-04551MA1999999097981MD1710041+9999MW1001REMSYN004BUFR
0148501360999992018012509004+52970+122530FM-12+043399999V0202201N00201026001C9029000199-02851-03541104431ADDAA106999999AA224999999GA1051+026001101GA2999+999999101GA3999+999999101GE19MSL   +99999+99999GF105991051999026001999999MD1210051+9999REMSYN004BUFR
0163501360999992018012512004+52970+122530FM-12+043399999V0202201N0010122000199027000199-03421-03811104511ADDAA106999999AA224999999GA1021+026001101GA2999+999999101GA3999+999999101GE19MSL   +99999+99999GF102991021999026001999999MA1999999098021MD1710011+9999REMSYN004BUFR
0052501360999992018012515004+52970+122530FM-12+043399999V0203601N0000199999999007000199-03741-04131104481ADDAA106999999AA224999999MD1210031+9999REMSYN004BUFR
0067501360999992018012518004+52970+122530FM-12+043399999V0201601N0010199999999000500199-03781-04181104331ADDAA106999999AA224999999MA1999999098061MD1210011+9999REMSYN004BUFR
0052501360999992018012521004+52970+122530FM-12+043399999V0202001N0020199999999000500199-03891-04311104301ADDAA106999999AA224999999MD1710081+9999REMSYN004BUFR
0169501360999992018012600004+52970+122530FM-12+043399999V0201601N00101026001C9001500199-04141-04571104361ADDAA124100092AJ199999999999999GA1071+026001101GA2999+999999101GA3999+999999101GE19MSL   +99999+99999GF107991071999026001999999MA1999999097931MD1710051-0101REMSYN004BUFR
0148501360999992018012603004+52970+122530FM-12+043399999V0200901N0010122000199002100199-03201-03661104111ADDAA106999999AA224999999GA1021+026001101GA2999+999999101GA3999+999999101GE19MSL   +99999+99999GF102991021999026001999999MD1710151+9999REMSYN004BUFR
0176501360999992018012606004+52970+122530FM-12+043399999V0202501N0050122000199030000199-02341-03301103691ADDAA106999999AA224999999GA1021+026001101GA2999+999999101GA3999+999999101GE19MSL   +99999+99999GF102991021999026001999999KA1240N-04151MA1999999097491MD1710291+9999REMSYN004BUFR
0148501360999992018012609004+52970+122530FM-12+043399999V0202901N0020122000199030000199-02631-03451103711ADDAA106999999AA224999999GA1021+026001101GA2999+999999101GA3999+999999101GE19MSL   +99999+99999GF102991021999026001999999MD1710041+9999REMSYN004BUFR
0163501360999992018012612004+52970+122530FM-12+043399999V0202501N0010122000199001500199-03241-03661103721ADDAA106999999AA224999999GA1011+026001101GA2999+999999101GA3999+999999101GE19MSL   +99999+99999GF101991011999026001999999MA1999999097351MD1710101+9999REMSYN004BUFR
0058501360999992018012615004+52970+122530FM-12+043399999V0201601N0010199999999002400199-03781-04181103541ADDAA106999999AA224999999MD1710111+9999MW1051REMSYN004BUFR
0067501360999992018012618004+52970+122530FM-12+043399999V0202001N0010199999999000200199-03851-04261103371ADDAA106999999AA224999999MA1999999097181MD1710061+9999REMSYN004BUFR
0052501360999992018012621004+52970+122530FM-12+043399999V0202001N0010199999999000300199-03941-04351103241ADDAA106999999AA224999999MD1710171+9999REMSYN004BUFR
0169501360999992018012700004+52970+122530FM-12+043399999V0201801N0010122000199001000199-03851-04261103211ADDAA124010091AJ199999999999999GA1031+026001101GA2999+999999101GA3999+999999101GE19MSL   +99999+99999GF103991031999026001999999MA1999999096911MD1710101-1001REMSYN004BUFR
0148501360999992018012703004+52970+122530FM-12+043399999V0201101N0010122000199001600199-02831-03251102981ADDAA106999999AA224999999GA1021+026001101GA2999+999999101GA3999+999999101GE19MSL   +99999+99999GF102991021999026001999999MD1710151+9999REMSYN004BUFR
0176501360999992018012706004+52970+122530FM-12+043399999V0202701N0050122000199030000199-01991-02991102551ADDAA106999999AA224999999GA1021+026001101GA2999+999999101GA3999+999999101GE19MSL   +99999+99999GF102991021999026001999999KA1240N-04061MA1999999096451MD1710311+9999REMSYN004BUFR
0148501360999992018012709004+52970+122530FM-12+043399999V0202201N0010122000199030000199-02391-03041102501ADDAA106999999AA224999999GA1031+026001101GA2999+999999101GA3999+999999101GE19MSL   +99999+99999GF103991031999026001999999MD1710111+9999REMSYN004BUFR
0163501360999992018012712004+52970+122530FM-12+043399999V0202501N0030122000199030000199-02481-03091102391ADDAA106999999AA224999999GA1021+026001101GA2999+999999101GA3999+999999101GE19MSL   +99999+99999GF102991021999026001999999MA1999999096241MD1710101+9999REMSYN004BUFR
0052501360999992018012715004+52970+122530FM-12+043399999V0202701N0020199999999030000199-02691-03111102191ADDAA106999999AA224999999MD1710091+9999REMSYN004BUFR
0067501360999992018012718004+52970+122530FM-12+043399999V0202201N0020199999999030000199-02891-03231102051ADDAA106999999AA224999999MA1999999096091MD1710061+9999REMSYN004BUFR
0058501360999992018012721004+52970+122530FM-12+043399999V0202501N0020199999999002500199-03391-03731102131ADDAA106999999AA224999999MD1710031+9999MW1051REMSYN004BUFR
0169501360999992018012800004+52970+122530FM-12+043399999V0201401N0010122000199001400199-03521-03901102231ADDAA124100092AJ199999999999999GA1021+026001101GA2999+999999101GA3999+999999101GE19MSL   +99999+99999GF102991021999026001999999MA1999999096131MD1210071-0801REMSYN004BUFR
0148501360999992018012803004+52970+122530FM-12+043399999V0202501N0020122000199030000199-02392-02911102121ADDAA106999999AA224999999GA1041+026001101GA2999+999999101GA3999+999999101GE19MSL   +99999+99999GF104991041999026001999999MD1410001+9999REMSYN004BUFR
0176501360999992018012806004+52970+122530FM-12+043399999V0203201N0040122000199030000199-01891-02861102021ADDAA106999999AA224999999GA1041+026001101GA2999+999999101GA3999+999999101GE19MSL   +99999+99999GF104991041999026001999999KA1240N-03531MA1999999096071MD1710061+9999REMSYN004BUFR
0148501360999992018012809004+52970+122530FM-12+043399999V0203201N00201026001C9013000199-01991-02871102131ADDAA106999999AA224999999GA1071+026001101GA2999+999999101GA3999+999999101GE19MSL   +99999+99999GF107991071999026001999999MD1210041+9999REMSYN004BUFR
0163501360999992018012812004+52970+122530FM-12+043399999V0202701N00201026001C9030000199-02371-03061102221ADDAA106999999AA224999999GA1081+026001101GA2999+999999101GA3999+999999101GE19MSL   +99999+99999GF108991081999026001999999MA1999999096131MD1210021+9999REMSYN004BUFR
0052501360999992018012815004+52970+122530FM-12+043399999V0202501N0010199999999030000199-02891-03301102061ADDAA106999999AA224999999MD1710081+9999REMSYN004BUFR
0067501360999992018012818004+52970+122530FM-12+043399999V0202201N0020199999999017000199-03241-03581101921ADDAA106999999AA224999999MA1999999095941MD1710111+9999REMSYN004BUFR
0058501360999992018012821004+52970+122530FM-12+043399999V0202001N0010199999999004100199-03641-04001101891ADDAA106999999AA224999999MD1710091+9999MW1051REMSYN004BUFR
0169501360999992018012900004+52970+122530FM-12+043399999V0202501N00101026001C9003600199-03601-03991101931ADDAA124010091AJ199999999999999GA1051+026001101GA2999+999999101GA3999+999999101GE19MSL   +99999+99999GF105991051999026001999999MA1999999095851MD1410001-0301REMSYN004BUFR
0148501360999992018012903004+52970+122530FM-12+043399999V0201401N0010122000199002100199-02342-02991101761ADDAA106999999AA224999999GA1011+026001101GA2999+999999101GA3999+999999101GE19MSL   +99999+99999GF101991011999026001999999MD1710071+9999REMSYN004BUFR
0176501360999992018012906004+52970+122530FM-12+043399999V0202901N0040122000199030000199-01701-02781101641ADDAA106999999AA224999999GA1041+026001101GA2999+999999101GA3999+999999101GE19MSL   +99999+99999GF104991041999026001999999KA1240N-03761MA1999999095701MD1710081+9999REMSYN004BUFR
0148501360999992018012909004+52970+122530FM-12+043399999V0202501N00201026001C9030000199-02041-02861101871ADDAA106999999AA224999999GA1061+026001101GA2999+999999101GA3999+999999101GE19MSL   +99999+99999GF106991061999026001999999MD1210131+9999REMSYN004BUFR
0163501360999992018012912004+52970+122530FM-12+043399999V0202501N00301026001C9030000199-02291-02911101971ADDAA106999999AA224999999GA1061+026001101GA2999+999999101GA3999+999999101GE19MSL   +99999+99999GF106991061999026001999999MA1999999095901MD1210071+9999REMSYN004BUFR
0052501360999992018012915004+52970+122530FM-12+043399999V0202701N0020199999999030000199-02681-03121101931ADDAA106999999AA224999999MD1210061+9999REMSYN004BUFR
0067501360999992018012918004+52970+122530FM-12+043399999V0202201N0010199999999030000199-02971-03311101941ADDAA106999999AA224999999MA1999999096011MD1210051+9999REMSYN004BUFR
0052501360999992018012921004+52970+122530FM-12+043399999V0202201N0020199999999030000199-03271-03621102091ADDAA106999999AA224999999MD1210071+9999REMSYN004BUFR
0169501360999992018013000004+52970+122530FM-12+043399999V0202201N00201026001C9030000199-03321-03691102281ADDAA124100092AJ199999999999999GA1061+026001101GA2999+999999101GA3999+999999101GE19MSL   +99999+99999GF106991061999026001999999MA1999999096221MD1210141+0401REMSYN004BUFR
0148501360999992018013003004+52970+122530FM-12+043399999V0201101N0020122000199012000199-02391-03071102241ADDAA106999999AA224999999GA1031+026001101GA2999+999999101GA3999+999999101GE19MSL   +99999+99999GF103991031999026001999999MD1210031+9999REMSYN004BUFR
0176501360999992018013006004+52970+122530FM-12+043399999V0203201N0040122000199030000199-01622-02751102131ADDAA106999999AA224999999GA1031+026001101GA2999+999999101GA3999+999999101GE19MSL   +99999+99999GF103991031999026001999999KA1240N-03441MA1999999096201MD1710051+9999REMSYN004BUFR
0148501360999992018013009004+52970+122530FM-12+043399999V0202501N00201026001C9030000199-01991-02821102381ADDAA106999999AA224999999GA1061+026001101GA2999+999999101GA3999+999999101GE19MSL   +99999+99999GF106991061999026001999999MD1210161+9999REMSYN004BUFR
0163501360999992018013012004+52970+122530FM-12+043399999V0202201N00301026001C9030000199-02641-03151102611ADDAA106999999AA224999999GA1071+026001101GA2999+999999101GA3999+999999101GE19MSL   +99999+99999GF107991071999026001999999MA1999999096491MD1210131+9999REMSYN004BUFR
0052501360999992018013015004+52970+122530FM-12+043399999V0202201N0020199999999030000199-02801-03161102591ADDAA106999999AA224999999MD1210071+9999REMSYN004BUFR
0067501360999992018013018004+52970+122530FM-12+043399999V0201601N0010199999999016000199-03291-03621102531ADDAA106999999AA224999999MA1999999096541MD1710021+9999REMSYN004BUFR
0058501360999992018013021004+52970+122530FM-12+043399999V0201801N0010199999999999999999-03491-03881102651ADDAA106999999AA224999999MD1210041+9999MW1051REMSYN004BUFR
0169501360999992018013100004+52970+122530FM-12+043399999V0201401N00101026001C9007000199-03591-03981102791ADDAA124100092AJ199999999999999GA1071+026001101GA2999+999999101GA3999+999999101GE19MSL   +99999+99999GF107991071999026001999999MA1999999096631MD1210051+0401REMSYN004BUFR
0148501360999992018013103004+52970+122530FM-12+043399999V0201401N0010122000199004700199-02521-03051102671ADDAA106999999AA224999999GA1011+026001101GA2999+999999101GA3999+999999101GE19MSL   +99999+99999GF101991011999026001999999MD1710011+9999REMSYN004BUFR
0176501360999992018013106004+52970+122530FM-12+043399999V0200901N0010122000199010000199-01642-02661102541ADDAA106999999AA224999999GA1021+026001101GA2999+999999101GA3999+999999101GE19MSL   +99999+99999GF102991021999026001999999KA1240N-03651MA1999999096551MD1710071+9999REMSYN004BUFR
0148501360999992018013109004+52970+122530FM-12+043399999V0201601N0010122000199011000199-02191-02801102741ADDAA106999999AA224999999GA1011+026001101GA2999+999999101GA3999+999999101GE19MSL   +99999+99999GF101991011999026001999999MD1210091+9999REMSYN004BUFR
0163501360999992018013112004+52970+122530FM-12+043399999V0203601N0000122000199999999999-02691-03021102971ADDAA106999999AA224999999GA1011+026001101GA2999+999999101GA3999+999999101GE19MSL   +99999+99999GF101991011999026001999999MA1999999096791MD1210151+9999REMSYN004BUFR
0058501360999992018013115004+52970+122530FM-12+043399999V0203601N0000199999999004500199-03221-03611103031ADDAA106999999AA224999999MD1210121+9999MW1051REMSYN004BUFR
0067501360999992018013118004+52970+122530FM-12+043399999V0203601N0000199999999008000199-03321-03681103051ADDAA106999999AA224999999MA1999999097021MD1210111+9999REMSYN004BUFR
0058501360999992018013121004+52970+122530FM-12+043399999V0202001N0010199999999002800199-03491-03881103261ADDAA106999999AA224999999MD1210111+9999MW1051REMSYN004BUFR
0169501360999992018020100004+52970+122530FM-12+043399999V0203601N0000122000199003000199-03641-04021103561ADDAA124100092AJ199999999999999GA1031+026001101GA2999+999999101GA3999+999999101GE19MSL   +99999+99999GF103991031999026001999999MA1999999097341MD1210211+0701REMSYN004BUFR
0148501360999992018020103004+52970+122530FM-12+043399999V0203601N0000122000199003800199-02751-03151103651ADDAA106999999AA224999999GA1011+026001101GA2999+999999101GA3999+999999101GE19MSL   +99999+99999GF101991011999026001999999MD1210131+9999REMSYN004BUFR
0176501360999992018020106004+52970+122530FM-12+043399999V0200401N0010122000199999999999-01842-02691103531ADDAA106999999AA224999999GA1011+026001101GA2999+999999101GA3999+999999101GE19MSL   +99999+99999GF101991011999026001999999KA1240N-03671MA1999999097451MD1710021+9999REMSYN004BUFR
0148501360999992018020109004+52970+122530FM-12+043399999V0202001N00101026001C9012000199-02321-02941103761ADDAA106999999AA224999999GA1071+026001101GA2999+999999101GA3999+999999101GE19MSL   +99999+99999GF107991071999026001999999MD1210141+9999REMSYN004BUFR
0163501360999992018020112004+52970+122530FM-12+043399999V0201401N00101026001C9012000199-02921-03241104051ADDAA106999999AA224999999GA1051+026001101GA2999+999999101GA3999+999999101GE19MSL   +99999+99999GF105991051999026001999999MA1999999097771MD1210181+9999REMSYN004BUFR
0052501360999992018020115004+52970+122530FM-12+043399999V0201601N0010199999999010000199-03301-03671104101ADDAA106999999AA224999999MD1210111+9999REMSYN004BUFR
0067501360999992018020118004+52970+122530FM-12+043399999V0201601N0010199999999011000199-03531-03901104101ADDAA106999999AA224999999MA1999999097961MD1210081+9999REMSYN004BUFR
0058501360999992018020121004+52970+122530FM-12+043399999V0203601N0000199999999002800199-03701-04101104231ADDAA106999999AA224999999MD1210051+9999MW1051REMSYN004BUFR
0175501360999992018020200004+52970+122530FM-12+043399999V0201801N00101026001C9000500199-03831-04231104451ADDAA124100092AJ199999999999999GA1071+026001101GA2999+999999101GA3999+999999101GE19MSL   +99999+99999GF107991071999026001999999MA1999999098121MD1210111+0801MW1461REMSYN004BUFR
0170501360999992018020203004+52970+122530FM-12+043399999V0200201N0010122000199006000199-02891-03291104311ADDAA106999999AA224999999AY141031AY201031GA1031+026001101GA2999+999999101GA3999+999999101GE19MSL   +99999+99999GF103991031999026001999999MD1710061+9999MW1001REMSYN004BUFR
0198501360999992018020206004+52970+122530FM-12+043399999V0200701N0010122000199012000199-01981-02801104061ADDAA106999999AA224999999AY141061AY201061GA1021+026001101GA2999+999999101GA3999+999999101GE19MSL   +99999+99999GF102991021999026001999999KA1240N-03871MA1999999097911MD1710151+9999MW1001REMSYN004BUFR
0148501360999992018020209004+52970+122530FM-12+043399999V0202001N0010122000199999999999-02441-03001104151ADDAA106999999AA224999999GA1021+026001101GA2999+999999101GA3999+999999101GE19MSL   +99999+99999GF102991021999026001999999MD1410001+9999REMSYN004BUFR
0163501360999992018020212004+52970+122530FM-12+043399999V0203601N0000122000199009000199-03101-03441104261ADDAA106999999AA224999999GA1011+026001101GA2999+999999101GA3999+999999101GE19MSL   +99999+99999GF101991011999026001999999MA1999999097921MD1210011+9999REMSYN004BUFR
0052501360999992018020215004+52970+122530FM-12+043399999V0203601N0000199999999007000199-03471-03831104211ADDAA106999999AA224999999MD1210021+9999REMSYN004BUFR
0089501360999992018020218004+52970+122530FM-12+043399999V0201801N0010199999999999999999-03741-04131104111ADDAA106999999AA224999999AY101061AY201061MA1999999097931MD1710011+9999MW1051REMSYN004BUFR
0058501360999992018020221004+52970+122530FM-12+043399999V0201601N0010199999999002000199-03891-04301104181ADDAA106999999AA224999999MD1710011+9999MW1051REMSYN004BUFR
0169501360999992018020300004+52970+122530FM-12+043399999V0203601N0000122000199000800199-03971-04381104291ADDAA124100092AJ199999999999999GA1031+026001101GA2999+999999101GA3999+999999101GE19MSL   +99999+99999GF103991031999026001999999MA1999999097931MD1210011-0201REMSYN004BUFR
0148501360999992018020303004+52970+122530FM-12+043399999V0200201N00101026001C9005000199-02891-03272104071ADDAA106999999AA224999999GA1061+026001101GA2999+999999101GA3999+999999101GE19MSL   +99999+99999GF106991061999026001999999MD1710121+9999REMSYN004BUFR
0176501360999992018020306004+52970+122530FM-12+043399999V0200901N0010122000199006000199-01901-02761103781ADDAA106999999AA224999999GA1031+026001101GA2999+999999101GA3999+999999101GE19MSL   +99999+99999GF103991031999026001999999KA1240N-04001MA1999999097631MD1710181+9999REMSYN004BUFR
0148501360999992018020309004+52970+122530FM-12+043399999V0201601N0020122000199009000199-02371-02981103851ADDAA106999999AA224999999GA1041+026001101GA2999+999999101GA3999+999999101GE19MSL   +99999+99999GF104991041999026001999999MD1710011+9999REMSYN004BUFR
0163501360999992018020312004+52970+122530FM-12+043399999V0201401N0010122000199006000199-03051-03401104031ADDAA106999999AA224999999GA1031+026001101GA2999+999999101GA3999+999999101GE19MSL   +99999+99999GF103991031999026001999999MA1999999097691MD1210071+9999REMSYN004BUFR
0052501360999992018020315004+52970+122530FM-12+043399999V0201801N0010199999999010000199-03441-03791103991ADDAA106999999AA224999999MD1210051+9999REMSYN004BUFR
0067501360999992018020318004+52970+122530FM-12+043399999V0201601N0010199999999007000199-03751-04151103981ADDAA106999999AA224999999MA1999999097811MD1210071+9999REMSYN004BUFR
0058501360999992018020321004+52970+122530FM-12+043399999V0202001N0010199999999001800199-03891-04301104081ADDAA106999999AA224999999MD1210031+9999MW1051REMSYN004BUFR
0169501360999992018020400004+52970+122530FM-12+043399999V0201401N00101026001C9001800199-03881-04281104261ADDAA124060091AJ199999999999999GA1071+026001101GA2999+999999101GA3999+999999101GE19MSL   +99999+99999GF107991071999026001999999MA1999999097921MD1210081+0001REMSYN004BUFR
0148501360999992018020403004+52970+122530FM-12+043399999V0200701N0010122000199004500199-02791-03351104151ADDAA106999999AA224999999GA1011+026001101GA2999+999999101GA3999+999999101GE19MSL   +99999+99999GF101991011999026001999999MD1710021+9999REMSYN004BUFR
0176501360999992018020406004+52970+122530FM-12+043399999V0203401N0030122000199006000199-01781-02791103891ADDAA106999999AA224999999GA1021+026001101GA2999+999999101GA3999+999999101GE19MSL   +99999+99999GF102991021999026001999999KA1240N-03941MA1999999097751MD1710151+9999REMSYN004BUFR
0148501360999992018020409004+52970+122530FM-12+043399999V0202901N0020122000199030000199-02001-02901103951ADDAA106999999AA224999999GA1031+026001101GA2999+999999101GA3999+999999101GE19MSL   +99999+99999GF103991031999026001999999MD1210011+9999REMSYN004BUFR
0163501360999992018020412004+52970+122530FM-12+043399999V0202501N0010122000199030000199-02751-03221104111ADDAA106999999AA224999999GA1021+026001101GA2999+999999101GA3999+999999101GE19MSL   +99999+99999GF102991021999026001999999MA1999999097821MD1210061+9999REMSYN004BUFR
0052501360999992018020415004+52970+122530FM-12+043399999V0203601N0000199999999023000199-03281-03641104001ADDAA106999999AA224999999MD1710041+9999REMSYN004BUFR
0067501360999992018020418004+52970+122530FM-12+043399999V0202001N0010199999999013000199-03471-03831103861ADDAA106999999AA224999999MA1999999097751MD1710031+9999REMSYN004BUFR
0052501360999992018020421004+52970+122530FM-12+043399999V0202001N0010199999999007000199-03641-04021103831ADDAA106999999AA224999999MD1710071+9999REMSYN004BUFR
0169501360999992018020500004+52970+122530FM-12+043399999V0201801N0010122000199001600199-03851-04261103951ADDAA124100092AJ199999999999999GA1011+026001101GA2999+999999101GA3999+999999101GE19MSL   +99999+99999GF101991011999026001999999MA1999999097671MD1710011-0301REMSYN004BUFR
0078501360999992018020503004+52970+122530FM-12+043399999V0201401N0010122000199004900199-02791-03271103741ADDAA106999999AA224999999GF100991999999999999999999MD1710131+9999REMSYN004BUFR
0176501360999992018020506004+52970+122530FM-12+043399999V0202201N0030122000199026000199-01672-02801103361ADDAA106999999AA224999999GA1021+026001101GA2999+999999101GA3999+999999101GE19MSL   +99999+99999GF102991021999026001999999KA1240N-03931MA1999999097291MD1710251+9999REMSYN004BUFR
0148501360999992018020509004+52970+122530FM-12+043399999V0202201N0020122000199030000199-02181-02971103361ADDAA106999999AA224999999GA1021+026001101GA2999+999999101GA3999+999999101GE19MSL   +99999+99999GF102991021999026001999999MD1710081+9999REMSYN004BUFR
0163501360999992018020512004+52970+122530FM-12+043399999V0203601N0000122000199999999999-02991-03351103471ADDAA106999999AA224999999GA1021+026001101GA2999+999999101GA3999+999999101GE19MSL   +99999+99999GF102991021999026001999999MA1999999097191MD1710021+9999REMSYN004BUFR
0058501360999992018020515004+52970+122530FM-12+043399999V0202001N0010199999999006000199-03391-03771103391ADDAA106999999AA224999999MD1410001+9999MW1051REMSYN004BUFR
0067501360999992018020518004+52970+122530FM-12+043399999V0201801N0010199999999007000199-03641-04031103251ADDAA106999999AA224999999MA1999999097171MD1710021+9999REMSYN004BUFR
0058501360999992018020521004+52970+122530FM-12+043399999V0202201N0010199999999006000199-03701-04101103311ADDAA106999999AA224999999MD1710011+9999MW1051REMSYN004BUFR
0169501360999992018020600004+52970+122530FM-12+043399999V0202501N00101026001C9003900199-03581-03971103511ADDAA124100092AJ199999999999999GA1051+026001101GA2999+999999101GA3999+999999101GE19MSL   +99999+99999GF105991051999026001999999MA1999999097261MD1210101-0401REMSYN004BUFR
0148501360999992018020603004+52970+122530FM-12+043399999V0203601N0010122000199003700199-02731-03251103501ADDAA106999999AA224999999GA1031+026001101GA2999+999999101GA3999+999999101GE19MSL   +99999+99999GF103991031999026001999999MD1210051+9999REMSYN004BUFR
0176501360999992018020606004+52970+122530FM-12+043399999V0200201N00101026001C9016000199-01821-02701103261ADDAA106999999AA224999999GA1051+026001101GA2999+999999101GA3999+999999101GE19MSL   +99999+99999GF105991051999026001999999KA1240N-03771MA1999999097161MD1710151+9999REMSYN004BUFR
0148501360999992018020609004+52970+122530FM-12+043399999V0202501N00101026001C9008000199-02071-02661103341ADDAA106999999AA224999999GA1051+026001101GA2999+999999101GA3999+999999101GE19MSL   +99999+99999GF105991051999026001999999MD1210041+9999REMSYN004BUFR
0163501360999992018020612004+52970+122530FM-12+043399999V0203601N0000122000199005000199-02721-03061103471ADDAA106999999AA224999999GA1041+026001101GA2999+999999101GA3999+999999101GE19MSL   +99999+99999GF104991041999026001999999MA1999999097261MD1210061+9999REMSYN004BUFR
0052501360999992018020615004+52970+122530FM-12+043399999V0201401N0010199999999013000199-03201-03561103411ADDAA106999999AA224999999MD1710011+9999REMSYN004BUFR
0067501360999992018020618004+52970+122530FM-12+043399999V0201601N0010199999999014000199-03501-03881103221ADDAA106999999AA224999999MA1999999097141MD1710111+9999REMSYN004BUFR
0058501360999992018020621004+52970+122530FM-12+043399999V0201801N0010199999999999999999-03741-04131103091ADDAA106999999AA224999999MD1710181+9999MW1051REMSYN004BUFR
0169501360999992018020700004+52970+122530FM-12+043399999V0203601N00001026001C9003000199-03891-04301102971ADDAA124090091AJ199999999999999GA1051+026001101GA2999+999999101GA3999+999999101GE19MSL   +99999+99999GF105991051999026001999999MA1999999096751MD1710211-0501REMSYN004BUFR
0148501360999992018020703004+52970+122530FM-12+043399999V0201101N00201026001C9007000199-02542-03022102451ADDAA106999999AA224999999GA1071+026001101GA2999+999999101GA3999+999999101GE19MSL   +99999+99999GF107991071999026001999999MD1710391+9999REMSYN004BUFR
0176501360999992018020706004+52970+122530FM-12+043399999V0202001N00401026001C9030000199-01422-02421101791ADDAA106999999AA224999999GA1071+026001101GA2999+999999101GA3999+999999101GE19MSL   +99999+99999GF107991071999026001999999KA1240N-03891MA1999999095841MD1710521+9999REMSYN004BUFR
0148501360999992018020709004+52970+122530FM-12+043399999V0201801N0030122000199029000199-01521-02511101411ADDAA106999999AA224999999GA1011+026001101GA2999+999999101GA3999+999999101GE19MSL   +99999+99999GF101991011999026001999999MD1710401+9999REMSYN004BUFR
0093501360999992018020712004+52970+122530FM-12+043399999V0201601N0010122000199006000199-02601-02981101291ADDAA106999999AA224999999GF100991999999999999999999MA1999999095181MD1710261+9999REMSYN004BUFR
0058501360999992018020715004+52970+122530FM-12+043399999V0201401N0010199999999004600199-02641-03021100981ADDAA106999999AA224999999MD1710131+9999MW1051REMSYN004BUFR
0089501360999992018020718004+52970+122530FM-12+043399999V0200701N0010199999999007000199-02591-02961100731ADDAA106999999AA224999999AY101061AY201061MA1999999094951MD1710101+9999MW1051REMSYN004BUFR
0052501360999992018020721004+52970+122530FM-12+043399999V0203601N0000199999999015000199-02891-03231100781ADDAA106999999AA224999999MD1410001+9999REMSYN004BUFR
0169501360999992018020800004+52970+122530FM-12+043399999V0202001N00101026001C9003400199-03091-03491101091ADDAA124090091AJ199999999999999GA1071+026001101GA2999+999999101GA3999+999999101GE19MSL   +99999+99999GF107991071999026001999999MA1999999095091MD1210141-1701REMSYN004BUFR
0148501360999992018020803004+52970+122530FM-12+043399999V0200901N00101026001C9003600199-02021-02531101081ADDAA106999999AA224999999GA1071+026001101GA2999+999999101GA3999+999999101GE19MSL   +99999+99999GF107991071999026001999999MD1210111+9999REMSYN004BUFR
0176501360999992018020806004+52970+122530FM-12+043399999V0202901N00201026001C9029000199-01621-02361101081ADDAA106999999AA224999999GA1071+026001101GA2999+999999101GA3999+999999101GE19MSL   +99999+99999GF107991071999026001999999KA1240N-03111MA1999999095251MD1210051+9999REMSYN004BUFR
0148501360999992018020809004+52970+122530FM-12+043399999V0203601N00201026001C9003900199-01791-02311101411ADDAA106999999AA224999999GA1081+026001101GA2999+999999101GA3999+999999101GE19MSL   +99999+99999GF108991081999026001999999MD1210261+9999REMSYN004BUFR
0180501360999992018020812004+52970+122530FM-12+043399999V0203201N00101026001C9003300199-01951-02261101671ADDAJ100003100000099AY171061AY201061GA1081+026001101GA2999+999999101GA3999+999999101GE19MSL   +99999+99999GF108991081999026001999999MA1999999095711MD1210201+9999MW1701REMSYN004BUFR
0030501360999992018020815004+52970+122530FM-12+043399999V0202001N0010199999999009000199-02291-02621101711ADDMD1210131+9999REMSYN004BUFR
0078501360999992018020818004+52970+122530FM-12+043399999V0202701N0010199999999004600199-02571-02851101791ADDAA106000131AY101061AY201061MA1999999095931MD1210091+9999MW1051REMSYN004BUFR
0052501360999992018020821004+52970+122530FM-12+043399999V0203601N0000199999999017000199-03141-03521101971ADDAA106999999AA224000231MD1210081+9999REMSYN004BUFR
0169501360999992018020900004+52970+122530FM-12+043399999V0201601N00101026001C9007000199-03231-03571102141ADDAA124000231AJ100003100000099GA1061+026001101GA2999+999999101GA3999+999999101GE19MSL   +99999+99999GF106991061999026001999999MA1999999096141MD1210131+1101REMSYN004BUFR
0148501360999992018020903004+52970+122530FM-12+043399999V0201601N00101026001C9004000199-02251-02741102071ADDAA106999999AA224999999GA1061+026001101GA2999+999999101GA3999+999999101GE19MSL   +99999+99999GF106991061999026001999999MD1210011+9999REMSYN004BUFR
0193501360999992018020906004+52970+122530FM-12+043399999V0203401N00201026001C9009000199-01841-02421101981ADDAJ100003100000099AY171061AY201061GA1071+026001101GA2999+999999101GA3999+999999101GE19MSL   +99999+99999GF107991071999026001999999KA1240N-03341MA1999999096081MD1710071+9999MW1221REMSYN004BUFR
0126501360999992018020909004+52970+122530FM-12+043399999V0202701N0030122000199030000199-01941-02551102131ADDGA1021+026001101GA2999+999999101GA3999+999999101GE19MSL   +99999+99999GF102991021999026001999999MD1210061+9999REMSYN004BUFR
0163501360999992018020912004+52970+122530FM-12+043399999V0202701N0010122000199011000199-02281-02621102251ADDAA106999999AA224999999GA1021+026001101GA2999+999999101GA3999+999999101GE19MSL   +99999+99999GF102991021999026001999999MA1999999096211MD1210071+9999REMSYN004BUFR
0052501360999992018020915004+52970+122530FM-12+043399999V0202501N0020199999999030000199-02691-03071102171ADDAA106999999AA224999999MD1710011+9999REMSYN004BUFR
0067501360999992018020918004+52970+122530FM-12+043399999V0202501N0030199999999030000199-03031-03371102111ADDAA106999999AA224999999MA1999999096151MD1710051+9999REMSYN004BUFR
0052501360999992018020921004+52970+122530FM-12+043399999V0202201N0010199999999028000199-03391-03761102141ADDAA106999999AA224000131MD1710031+9999REMSYN004BUFR
0169501360999992018021000004+52970+122530FM-12+043399999V0202501N00201026001C9030000199-03291-03671102141ADDAA124000131AJ100099100090099GA1051+026001101GA2999+999999101GA3999+999999101GE19MSL   +99999+99999GF105991051999026001999999MA1999999096101MD1710021+0001REMSYN004BUFR
0148501360999992018021003004+52970+122530FM-12+043399999V0202501N00201026001C9021000199-02371-02841101961ADDAA106999999AA224999999GA1071+026001101GA2999+999999101GA3999+999999101GE19MSL   +99999+99999GF107991071999026001999999MD1710111+9999REMSYN004BUFR
0176501360999992018021006004+52970+122530FM-12+043399999V0203401N00401026001C9011000199-02051-02811101891ADDAA106999999AA224999999GA1061+026001101GA2999+999999101GA3999+999999101GE19MSL   +99999+99999GF106991061999026001999999KA1240N-03461MA1999999095921MD1710071+9999REMSYN004BUFR
0148501360999992018021009004+52970+122530FM-12+043399999V0202701N00301026001C9002000199-02091-02461101961ADDAA106999999AA224999999GA1071+026001101GA2999+999999101GA3999+999999101GE19MSL   +99999+99999GF107991071999026001999999MD1210021+9999REMSYN004BUFR
0180501360999992018021012004+52970+122530FM-12+043399999V0202501N00201026001C9003100199-02181-02501101941ADDAJ100003100000099AY171061AY201061GA1071+026001101GA2999+999999101GA3999+999999101GE19MSL   +99999+99999GF107991071999026001999999MA1999999095921MD1710021+9999MW1701REMSYN004BUFR
0036501360999992018021015004+52970+122530FM-12+043399999V0203201N0030199999999004500199-02051-02451101701ADDMD1710111+9999MW1051REMSYN004BUFR
0056501360999992018021018004+52970+122530FM-12+043399999V0202701N0020199999999014000199-02181-02521101591ADDAA106000231MA1999999095731MD1710081+9999REMSYN004BUFR
0047501360999992018021021004+52970+122530FM-12+043399999V0202501N0030199999999004400199-02181-02471101461ADDAA124000431MD1710131+9999MW1051REMSYN004BUFR
0175501360999992018021100004+52970+122530FM-12+043399999V0202501N00301026001C9008000199-02041-02361101421ADDAA124000731AJ100003100000099GA1071+026001101GA2999+999999101GA3999+999999101GE19MSL   +99999+99999GF107991071999026001999999MA1999999095571MD1710031-0501MW1701REMSYN004BUFR
0165501360999992018021103004+52970+122530FM-12+043399999V0203401N00401026001C9008000199-01701-02381101331ADDAJ100109100100099AY171031AY271031GA1081+026001101GA2999+999999101GA3999+999999101GE19MSL   +99999+99999GF108991081999026001999999MD1710031+9999MW1701REMSYN004BUFR
0204501360999992018021106004+52970+122530FM-12+043399999V0203401N00501026001C9015000199-01691-02361101361ADDAA124100092AJ199999999999999AY171061AY201061GA1081+026001101GA2999+999999101GA3999+999999101GE19MSL   +99999+99999GF108991081999026001999999KA1240N-02251MA1999999095561MD1210021+9999MW1001REMSYN004BUFR
0148501360999992018021109004+52970+122530FM-12+043399999V0203401N00301026001C9025000199-01741-02501101471ADDAA106999999AA224999999GA1081+026001101GA2999+999999101GA3999+999999101GE19MSL   +99999+99999GF108991081999026001999999MD1210091+9999REMSYN004BUFR
0163501360999992018021112004+52970+122530FM-12+043399999V0203201N00301026001C9021000199-01771-02611101491ADDAA106999999AA224999999GA1081+026001101GA2999+999999101GA3999+999999101GE19MSL   +99999+99999GF108991081999026001999999MA1999999095681MD1210031+9999REMSYN004BUFR
0052501360999992018021115004+52970+122530FM-12+043399999V0203401N0020199999999030000199-01871-02571101461ADDAA106999999AA224999999MD1410001+9999REMSYN004BUFR
0067501360999992018021118004+52970+122530FM-12+043399999V0202901N0010199999999011000199-02031-02391101461ADDAA106999999AA224999999MA1999999095671MD1710011+9999REMSYN004BUFR
0052501360999992018021121004+52970+122530FM-12+043399999V0201101N0010199999999007000199-02541-02851101521ADDAA106999999AA224000331MD1710011+9999REMSYN004BUFR
0175501360999992018021200004+52967+122533FM-12+043899999V0209999C999992200019N007000199-02911-03211101621ADDGA1021+999999999GE19MSL   +99999+99999GF102991021999999999999999MA1999999095711MD1210051+9999REMSYN07050136 32957 20000 11291 21321 39571 40162 52005 82/// 333 00159 92510=
0148501360999992018021203004+52970+122530FM-12+043399999V0203201N00501026001C9028000199-01622-02541101371ADDAA106999999AA224999999GA1061+026001101GA2999+999999101GA3999+999999101GE19MSL   +99999+99999GF106991061999026001999999MD1710101+9999REMSYN004BUFR
0176501360999992018021206004+52970+122530FM-12+043399999V0203201N00501026001C9030000199-01421-02501101301ADDAA106999999AA224999999GA1071+026001101GA2999+999999101GA3999+999999101GE19MSL   +99999+99999GF107991071999026001999999KA1240N-03001MA1999999095541MD1710071+9999REMSYN004BUFR
0148501360999992018021209004+52970+122530FM-12+043399999V0203201N00101026001C9013000199-01621-02521101461ADDAA106999999AA224999999GA1071+026001101GA2999+999999101GA3999+999999101GE19MSL   +99999+99999GF107991071999026001999999MD1210081+9999REMSYN004BUFR
0163501360999992018021212004+52970+122530FM-12+043399999V0202201N00101026001C9029000199-02331-02741101591ADDAA106999999AA224999999GA1051+026001101GA2999+999999101GA3999+999999101GE19MSL   +99999+99999GF105991051999026001999999MA1999999095621MD1410001+9999REMSYN004BUFR
0052501360999992018021215004+52970+122530FM-12+043399999V0201401N0010199999999012000199-02791-03131101441ADDAA106999999AA224999999MD1710051+9999REMSYN004BUFR
0067501360999992018021218004+52970+122530FM-12+043399999V0203601N0000199999999021000199-03151-03541101461ADDAA106999999AA224999999MA1999999095571MD1410001+9999REMSYN004BUFR
0052501360999992018021221004+52970+122530FM-12+043399999V0201401N0010199999999025000199-03221-03571101471ADDAA106999999AA224999999MD1710021+9999REMSYN004BUFR
0169501360999992018021300004+52970+122530FM-12+043399999V0202001N00101026001C9008000199-03291-03681101561ADDAA124100092AJ199999999999999GA1071+026001101GA2999+999999101GA3999+999999101GE19MSL   +99999+99999GF107991071999026001999999MA1999999095541MD1710011-0201REMSYN004BUFR
0148501360999992018021303004+52970+122530FM-12+043399999V0200901N00101026001C9003700199-02251-02791101391ADDAA106999999AA224999999GA1071+026001101GA2999+999999101GA3999+999999101GE19MSL   +99999+99999GF107991071999026001999999MD1710091+9999REMSYN004BUFR
0176501360999992018021306004+52970+122530FM-12+043399999V0203401N0050122000199030000199-01122-02251101191ADDAA106999999AA224999999GA1041+017501101GA2999+999999101GA3999+999999101GE19MSL   +99999+99999GF104991041999017501999999KA1240N-03361MA1999999095351MD1710101+9999REMSYN004BUFR
0148501360999992018021309004+52970+122530FM-12+043399999V0203401N00501026001C9021000199-01201-02041101341ADDAA106999999AA224999999GA1071+026001101GA2999+999999101GA3999+999999101GE19MSL   +99999+99999GF107991071999026001999999MD1210121+9999REMSYN004BUFR
0163501360999992018021312004+52970+122530FM-12+043399999V0202501N0020122000199030000199-01991-02481101591ADDAA106999999AA224999999GA1031+026001101GA2999+999999101GA3999+999999101GE19MSL   +99999+99999GF103991031999026001999999MA1999999095611MD1210141+9999REMSYN004BUFR
0052501360999992018021315004+52970+122530FM-12+043399999V0202501N0010199999999030000199-02441-02801101581ADDAA106999999AA224999999MD1210061+9999REMSYN004BUFR
0067501360999992018021318004+52970+122530FM-12+043399999V0202201N0020199999999030000199-02491-02851101541ADDAA106999999AA224999999MA1999999095751MD1210081+9999REMSYN004BUFR
0052501360999992018021321004+52970+122530FM-12+043399999V0202201N0030199999999029000199-02751-03101101671ADDAA106999999AA224999999MD1210091+9999REMSYN004BUFR
0169501360999992018021400004+52970+122530FM-12+043399999V0202201N0030122000199030000199-02831-03191101921ADDAA124100092AJ199999999999999GA1021+026001101GA2999+999999101GA3999+999999101GE19MSL   +99999+99999GF102991021999026001999999MA1999999095981MD1210141+0401REMSYN004BUFR
0148501360999992018021403004+52970+122530FM-12+043399999V0201101N0010122000199004900199-01672-02491101811ADDAA106999999AA224999999GA1011+026001101GA2999+999999101GA3999+999999101GE19MSL   +99999+99999GF101991011999026001999999MD1710031+9999REMSYN004BUFR
0176501360999992018021406004+52970+122530FM-12+043399999V0203201N0040122000199030000199-01042-02361101641ADDAA106999999AA224999999GA1021+026001101GA2999+999999101GA3999+999999101GE19MSL   +99999+99999GF102991021999026001999999KA1240N-02931MA1999999095861MD1710091+9999REMSYN004BUFR
0148501360999992018021409004+52970+122530FM-12+043399999V0202701N0010122000199015000199-01371-02471101691ADDAA106999999AA224999999GA1011+026001101GA2999+999999101GA3999+999999101GE19MSL   +99999+99999GF101991011999026001999999MD1710021+9999REMSYN004BUFR
0163501360999992018021412004+52970+122530FM-12+043399999V0203601N0000122000199009000199-02451-02871101921ADDAA106999999AA224999999GA1021+026001101GA2999+999999101GA3999+999999101GE19MSL   +99999+99999GF102991021999026001999999MA1999999095921MD1210081+9999REMSYN004BUFR
0052501360999992018021415004+52970+122530FM-12+043399999V0200701N0010199999999011000199-02891-03231101841ADDAA106999999AA224999999MD1210011+9999REMSYN004BUFR
0138501360999992018021418004+52967+122533FM-12+043899999V0202201N00101002401WN026000199-03211-03571101851ADDGF109991999999999999999999KA1120M-01001MA1999999095981MD1210051+9999REMSYN05850136 32/76 92201 11321 21357 39598 40185 52005 333 11100=
0052501360999992018021421004+52970+122530FM-12+043399999V0201601N0010199999999006000199-03441-03821101901ADDAA106999999AA224999999MD1710021+9999REMSYN004BUFR
0169501360999992018021500004+52970+122530FM-12+043399999V0203601N0000122000199004400199-03471-03841102151ADDAA124100092AJ199999999999999GA1021+026001101GA2999+999999101GA3999+999999101GE19MSL   +99999+99999GF102991021999026001999999MA1999999096061MD1210101+0101REMSYN004BUFR
0148501360999992018021503004+52970+122530FM-12+043399999V0200701N00101026001C9999999999-02332-02931102071ADDAA106999999AA224999999GA1051+026001101GA2999+999999101GA3999+999999101GE19MSL   +99999+99999GF105991051999026001999999MD1210011+9999REMSYN004BUFR
0176501360999992018021506004+52970+122530FM-12+043399999V0201801N0010122000199027000199-01452-02551101841ADDAA106999999AA224999999GA1041+026001101GA2999+999999101GA3999+999999101GE19MSL   +99999+99999GF104991041999026001999999KA1240N-03581MA1999999095921MD1710151+9999REMSYN004BUFR
0148501360999992018021509004+52970+122530FM-12+043399999V0203201N0030122000199024000199-01571-02691101941ADDAA106999999AA224999999GA1031+026001101GA2999+999999101GA3999+999999101GE19MSL   +99999+99999GF103991031999026001999999MD1210051+9999REMSYN004BUFR
0163501360999992018021512004+52970+122530FM-12+043399999V0202901N0020122000199030000199-02231-02871102211ADDAA106999999AA224999999GA1031+026001101GA2999+999999101GA3999+999999101GE19MSL   +99999+99999GF103991031999026001999999MA1999999096151MD1210181+9999REMSYN004BUFR
0052501360999992018021515004+52970+122530FM-12+043399999V0202201N0020199999999030000199-02741-03141102181ADDAA106999999AA224999999MD1210041+9999REMSYN004BUFR
0067501360999992018021518004+52970+122530FM-12+043399999V0202201N0030199999999030000199-03051-03401102151ADDAA106999999AA224999999MA1999999096231MD1210041+9999REMSYN004BUFR
0052501360999992018021521004+52970+122530FM-12+043399999V0202001N0020199999999010000199-03401-03801102241ADDAA106999999AA224999999MD1210031+9999REMSYN004BUFR
0169501360999992018021600004+52970+122530FM-12+043399999V0202001N0020122000199019000199-03241-03631102361ADDAA124100092AJ199999999999999GA1021+026001101GA2999+999999101GA3999+999999101GE19MSL   +99999+99999GF102991021999026001999999MA1999999096311MD1210051+0301REMSYN004BUFR
0148501360999992018021603004+52970+122530FM-12+043399999V0203401N0010122000199999999999-01902-02811102201ADDAA106999999AA224999999GA1021+026001101GA2999+999999101GA3999+999999101GE19MSL   +99999+99999GF102991021999026001999999MD1710051+9999REMSYN004BUFR
0176501360999992018021606004+52970+122530FM-12+043399999V0203201N0050122000199030000199-01541-02681102131ADDAA106999999AA224999999GA1021+026001101GA2999+999999101GA3999+999999101GE19MSL   +99999+99999GF102991021999026001999999KA1240N-03471MA1999999096201MD1710061+9999REMSYN004BUFR
0148501360999992018021609004+52970+122530FM-12+043399999V0203201N0040122000199030000199-01671-02711102261ADDAA106999999AA224999999GA1011+026001101GA2999+999999101GA3999+999999101GE19MSL   +99999+99999GF101991011999026001999999MD1210071+9999REMSYN004BUFR
0093501360999992018021612004+52970+122530FM-12+043399999V0202201N0010122000199030000199-02181-02801102401ADDAA106999999AA224999999GF100991999999999999999999MA1999999096361MD1210091+9999REMSYN004BUFR
0052501360999992018021615004+52970+122530FM-12+043399999V0202501N0020199999999030000199-02691-03041102281ADDAA106999999AA224999999MD1710021+9999REMSYN004BUFR
0067501360999992018021618004+52970+122530FM-12+043399999V0202201N0020199999999030000199-03001-03401102281ADDAA106999999AA224999999MA1999999096351MD1210011+9999REMSYN004BUFR
0052501360999992018021621004+52970+122530FM-12+043399999V0202001N0010199999999030000199-03271-03631102361ADDAA106999999AA224999999MD1210031+9999REMSYN004BUFR
0099501360999992018021700004+52970+122530FM-12+043399999V0203601N0000122000199023000199-03341-03701102611ADDAA124090091AJ199999999999999GF100991999999999999999999MA1999999096541MD1210161+0201REMSYN004BUFR
0148501360999992018021703004+52970+122530FM-12+043399999V0200901N0010122000199002600199-01802-02602102491ADDAA106999999AA224999999GA1021+026001101GA2999+999999101GA3999+999999101GE19MSL   +99999+99999GF102991021999026001999999MD1210011+9999REMSYN004BUFR
0176501360999992018021706004+52970+122530FM-12+043399999V0202901N0030122000199030000199-01291-02521102371ADDAA106999999AA224999999GA1021+026001101GA2999+999999101GA3999+999999101GE19MSL   +99999+99999GF102991021999026001999999KA1240N-03441MA1999999096461MD1710091+9999REMSYN004BUFR
0148501360999992018021709004+52970+122530FM-12+043399999V0203201N0030122000199030000199-01451-02571102491ADDAA106999999AA224999999GA1021+026001101GA2999+999999101GA3999+999999101GE19MSL   +99999+99999GF102991021999026001999999MD1210061+9999REMSYN004BUFR
0163501360999992018021712004+52970+122530FM-12+043399999V0200901N0010122000199007000199-02431-02811102711ADDAA106999999AA224999999GA1011+026001101GA2999+999999101GA3999+999999101GE19MSL   +99999+99999GF101991011999026001999999MA1999999096611MD1210091+9999REMSYN004BUFR
0094501360999992018021715004+52967+122533FM-12+043899999V0200901N00101002401WN009000199-02861-03191102631ADDGF109991999999999999999999MD1210051+9999REMSYN04250136 32/59 90901 11286 21319 40263 52005=
0166501360999992018021718004+52967+122533FM-12+043899999V0201601N001019999999N999999999-03121-03461102611ADDAY101021AY201021GF109991999999999999999999KA1120M-01221MA1999999096671MD1210011+9999MW1051REMSYN06450136 31/55 91601 11312 21346 39667 40261 52001 70500 333 11122=
0052501360999992018021721004+52970+122530FM-12+043399999V0201801N0010199999999026000199-03331-03691102641ADDAA106999999AA224999999MD1710011+9999REMSYN004BUFR
0169501360999992018021800004+52970+122530FM-12+043399999V0203601N0000122000199030000199-03431-03821102841ADDAA124090091AJ199999999999999GA1041+026001101GA2999+999999101GA3999+999999101GE19MSL   +99999+99999GF104991041999026001999999MA1999999096721MD1210061+0201REMSYN004BUFR
0148501360999992018021803004+52970+122530FM-12+043399999V0200901N0010122000199006000199-02072-02741102611ADDAA106999999AA224999999GA1021+026001101GA2999+999999101GA3999+999999101GE19MSL   +99999+99999GF102991021999026001999999MD1710111+9999REMSYN004BUFR
0176501360999992018021806004+52970+122530FM-12+043399999V0203401N00301012501C9030000199-01222-02291102421ADDAA106999999AA224999999GA1061+012501101GA2999+999999101GA3999+999999101GE19MSL   +99999+99999GF106991061999012501999999KA1240N-03511MA1999999096501MD1710111+9999REMSYN004BUFR
0148501360999992018021809004+52970+122530FM-12+043399999V0202901N0030122000199030000199-01401-02531102491ADDAA106999999AA224999999GA1031+026001101GA2999+999999101GA3999+999999101GE19MSL   +99999+99999GF103991031999026001999999MD1210021+9999REMSYN004BUFR
0163501360999992018021812004+52970+122530FM-12+043399999V0201601N00101026001C9999999999-02441-02911102681ADDAA106999999AA224999999GA1051+026001101GA2999+999999101GA3999+999999101GE19MSL   +99999+99999GF105991051999026001999999MA1999999096571MD1210051+9999REMSYN004BUFR
0052501360999992018021815004+52970+122530FM-12+043399999V0202201N0010199999999013000199-02691-03001102501ADDAA106999999AA224999999MD1710041+9999REMSYN004BUFR
0067501360999992018021818004+52970+122530FM-12+043399999V0202001N0010199999999016000199-03051-03431102431ADDAA106999999AA224999999MA1999999096521MD1710011+9999REMSYN004BUFR
0058501360999992018021821004+52970+122530FM-12+043399999V0201801N0010199999999999999999-02751-03081102401ADDAA106999999AA224999999MD1710021+9999MW1051REMSYN004BUFR
0169501360999992018021900004+52970+122530FM-12+043399999V0202201N00101026001C9010000199-02791-03161102631ADDAA124090091AJ199999999999999GA1081+026001101GA2999+999999101GA3999+999999101GE19MSL   +99999+99999GF108991081999026001999999MA1999999096601MD1210101-0101REMSYN004BUFR
0148501360999992018021903004+52970+122530FM-12+043399999V0201101N00101026001C9013000199-01731-02551102481ADDAA106999999AA224999999GA1051+026001101GA2999+999999101GA3999+999999101GE19MSL   +99999+99999GF105991051999026001999999MD1710051+9999REMSYN004BUFR
0176501360999992018021906004+52970+122530FM-12+043399999V0203401N00401012501C9030000199-01441-02621102381ADDAA106999999AA224999999GA1061+012501101GA2999+999999101GA3999+999999101GE19MSL   +99999+99999GF106991061999012501999999KA1240N-03071MA1999999096451MD1710101+9999REMSYN004BUFR
0148501360999992018021909004+52970+122530FM-12+043399999V0203201N00401026001C9030000199-01551-02701102401ADDAA106999999AA224999999GA1061+026001101GA2999+999999101GA3999+999999101GE19MSL   +99999+99999GF106991061999026001999999MD1210041+9999REMSYN004BUFR
0163501360999992018021912004+52970+122530FM-12+043399999V0202701N00101026001C9030000199-02381-02961102571ADDAA106999999AA224999999GA1061+026001101GA2999+999999101GA3999+999999101GE19MSL   +99999+99999GF106991061999026001999999MA1999999096551MD1210061+9999REMSYN004BUFR
0052501360999992018021915004+52970+122530FM-12+043399999V0202501N0010199999999026000199-02881-03241102491ADDAA106999999AA224999999MD1710011+9999REMSYN004BUFR
0067501360999992018021918004+52970+122530FM-12+043399999V0201601N0010199999999020000199-03251-03591102501ADDAA106999999AA224999999MA1999999096541MD1410001+9999REMSYN004BUFR
0058501360999992018021921004+52970+122530FM-12+043399999V0203601N0000199999999000900199-03581-03961102541ADDAA106999999AA224999999MD1710021+9999MW1051REMSYN004BUFR
0169501360999992018022000004+52970+122530FM-12+043399999V0203601N0000122000199007000199-03581-03951102681ADDAA124080091AJ199999999999999GA1041+026001101GA2999+999999101GA3999+999999101GE19MSL   +99999+99999GF104991041999026001999999MA1999999096561MD1210041+0001REMSYN004BUFR
0148501360999992018022003004+52970+122530FM-12+043399999V0201101N0010122000199007000199-02152-02971102491ADDAA106999999AA224999999GA1021+026001101GA2999+999999101GA3999+999999101GE19MSL   +99999+99999GF102991021999026001999999MD1710071+9999REMSYN004BUFR
0176501360999992018022006004+52970+122530FM-12+043399999V0201401N0010122000199020000199-01202-02511102151ADDAA106999999AA224999999GA1021+026001101GA2999+999999101GA3999+999999101GE19MSL   +99999+99999GF102991021999026001999999KA1240N-03761MA1999999096231MD1710261+9999REMSYN004BUFR
0148501360999992018022009004+52970+122530FM-12+043399999V0203201N0020122000199017000199-01421-02811102201ADDAA106999999AA224999999GA1021+026001101GA2999+999999101GA3999+999999101GE19MSL   +99999+99999GF102991021999026001999999MD1710011+9999REMSYN004BUFR
0163501360999992018022012004+52970+122530FM-12+043399999V0201401N0010122000199003900199-02582-03081102351ADDAA106999999AA224999999GA1021+026001101GA2999+999999101GA3999+999999101GE19MSL   +99999+99999GF102991021999026001999999MA1999999096221MD1410001+9999REMSYN004BUFR
0052501360999992018022015004+52970+122530FM-12+043399999V0202201N0010199999999013000199-03101-03441102131ADDAA106999999AA224999999MD1710101+9999REMSYN004BUFR
0138501360999992018022018004+52967+122533FM-12+043899999V0209999C99999002401WN014000199-03351-03741101961ADDGF109991999999999999999999KA1120M-01151MA1999999096041MD1710081+9999REMSYN05850136 32/64 90000 11335 21374 39604 40196 57008 333 11115=
0052501360999992018022021004+52970+122530FM-12+043399999V0203601N0000199999999010000199-03191-03551101871ADDAA106999999AA224999999MD1710091+9999REMSYN004BUFR
0169501360999992018022100004+52970+122530FM-12+043399999V0203201N00101026001C9011000199-02951-03321101941ADDAA124080091AJ199999999999999GA1081+026001101GA2999+999999101GA3999+999999101GE19MSL   +99999+99999GF108991081999026001999999MA1999999095911MD1710041-0701REMSYN004BUFR
0148501360999992018022103004+52970+122530FM-12+043399999V0200401N00101026001C9007000199-02091-02851101861ADDAA106999999AA224999999GA1071+026001101GA2999+999999101GA3999+999999101GE19MSL   +99999+99999GF107991071999026001999999MD1710041+9999REMSYN004BUFR
0176501360999992018022106004+52970+122530FM-12+043399999V0202201N00101026001C9030000199-01391-02191101661ADDAA106999999AA224999999GA1071+026001101GA2999+999999101GA3999+999999101GE19MSL   +99999+99999GF107991071999026001999999KA1240N-03391MA1999999095741MD1710131+9999REMSYN004BUFR
0148501360999992018022109004+52970+122530FM-12+043399999V0202701N00101026001C9030000199-01471-02571101741ADDAA106999999AA224999999GA1071+026001101GA2999+999999101GA3999+999999101GE19MSL   +99999+99999GF107991071999026001999999MD1210081+9999REMSYN004BUFR
0163501360999992018022112004+52970+122530FM-12+043399999V0200901N0010122000199013000199-02541-02951101951ADDAA106999999AA224999999GA1041+026001101GA2999+999999101GA3999+999999101GE19MSL   +99999+99999GF104991041999026001999999MA1999999095921MD1210101+9999REMSYN004BUFR
0052501360999992018022115004+52970+122530FM-12+043399999V0203601N0000199999999014000199-02991-03321101931ADDAA106999999AA224999999MD1210031+9999REMSYN004BUFR
0138501360999992018022118004+52967+122533FM-12+043899999V0201801N00101002401WN019000199-03361-03721101961ADDGF109991999999999999999999KA1120M-01241MA1999999096021MD1210071+9999REMSYN05850136 32/69 91801 11336 21372 39602 40196 52007 333 11124=
0058501360999992018022121004+52970+122530FM-12+043399999V0203601N0000199999999001900199-03491-03871102051ADDAA106999999AA224999999MD1210061+9999MW1051REMSYN004BUFR
0169501360999992018022200004+52970+122530FM-12+043399999V0202001N00101026001C9002800199-03491-03871102281ADDAA124080091AJ199999999999999GA1051+026001101GA2999+999999101GA3999+999999101GE19MSL   +99999+99999GF105991051999026001999999MA1999999096171MD1210091+0301REMSYN004BUFR
0148501360999992018022203004+52970+122530FM-12+043399999V0200901N00101026001C9999999999-02342-02911102121ADDAA106999999AA224999999GA1061+026001101GA2999+999999101GA3999+999999101GE19MSL   +99999+99999GF106991061999026001999999MD1710071+9999REMSYN004BUFR
0182501360999992018022206004+52967+122533FM-12+043899999V0203601N002019999999N029000199-01462-02521101881ADDGA1071+999999999GE19MSL   +99999+99999GF107991071999999999999999KA1240N-03611MA1999999095941MD1710161+9999REMSYN06450136 32979 73602 11146 21252 39594 40188 57016 87/// 333 21361=
0148501360999992018022209004+52970+122530FM-12+043399999V0202901N00201026001C9029000199-01621-02791102011ADDAA106999999AA224999999GA1051+026001101GA2999+999999101GA3999+999999101GE19MSL   +99999+99999GF105991051999026001999999MD1210091+9999REMSYN004BUFR
0163501360999992018022212004+52970+122530FM-12+043399999V0201801N0010122000199020000199-02752-03171102311ADDAA106999999AA224999999GA1041+026001101GA2999+999999101GA3999+999999101GE19MSL   +99999+99999GF104991041999026001999999MA1999999096171MD1210141+9999REMSYN004BUFR
0052501360999992018022215004+52970+122530FM-12+043399999V0201601N0010199999999013000199-03181-03531102351ADDAA106999999AA224999999MD1210131+9999REMSYN004BUFR
0067501360999992018022218004+52970+122530FM-12+043399999V0203601N0000199999999007000199-03441-03801102411ADDAA106999999AA224999999MA1999999096431MD1210131+9999REMSYN004BUFR
0052501360999992018022221004+52970+122530FM-12+043399999V0203601N0000199999999007000199-03721-04111102631ADDAA106999999AA224999999MD1210151+9999REMSYN004BUFR
0169501360999992018022300004+52970+122530FM-12+043399999V0203601N0000122000199004500199-03641-04001102991ADDAA124080091AJ199999999999999GA1041+026001101GA2999+999999101GA3999+999999101GE19MSL   +99999+99999GF104991041999026001999999MA1999999096791MD1210211+0601REMSYN004BUFR
0148501360999992018022303004+52970+122530FM-12+043399999V0200201N00101026001C9006000199-02442-03011102941ADDAA106999999AA224999999GA1051+026001101GA2999+999999101GA3999+999999101GE19MSL   +99999+99999GF105991051999026001999999MD1210051+9999REMSYN004BUFR
0176501360999992018022306004+52970+122530FM-12+043399999V0202901N00201012501C9030000199-01471-02621102831ADDAA106999999AA224999999GA1061+012501101GA2999+999999101GA3999+999999101GE19MSL   +99999+99999GF106991061999012501999999KA1240N-03861MA1999999096821MD1710021+9999REMSYN004BUFR
0148501360999992018022309004+52970+122530FM-12+043399999V0202901N00201012501C9030000199-01601-02711103011ADDAA106999999AA224999999GA1061+012501101GA2999+999999101GA3999+999999101GE19MSL   +99999+99999GF106991061999012501999999MD1210121+9999REMSYN004BUFR
0163501360999992018022312004+52970+122530FM-12+043399999V0200401N0010122000199030000199-02641-03061103321ADDAA106999999AA224999999GA1031+026001101GA2999+999999101GA3999+999999101GE19MSL   +99999+99999GF103991031999026001999999MA1999999097121MD1210181+9999REMSYN004BUFR
0052501360999992018022315004+52970+122530FM-12+043399999V0201601N0010199999999028000199-03101-03481103341ADDAA106999999AA224999999MD1210111+9999REMSYN004BUFR
0067501360999992018022318004+52970+122530FM-12+043399999V0201801N0010199999999026000199-03391-03771103341ADDAA106999999AA224999999MA1999999097311MD1210081+9999REMSYN004BUFR
0052501360999992018022321004+52970+122530FM-12+043399999V0203601N0000199999999015000199-03631-04011103391ADDAA106999999AA224999999MD1410001+9999REMSYN004BUFR
0169501360999992018022400004+52970+122530FM-12+043399999V0203601N0000122000199004400199-03541-03911103581ADDAA124080091AJ199999999999999GA1021+026001101GA2999+999999101GA3999+999999101GE19MSL   +99999+99999GF102991021999026001999999MA1999999097371MD1210061+0601REMSYN004BUFR
0148501360999992018022403004+52970+122530FM-12+043399999V0200701N0010122000199008000199-02252-02921103361ADDAA106999999AA224999999GA1011+026001101GA2999+999999101GA3999+999999101GE19MSL   +99999+99999GF101991011999026001999999MD1710101+9999REMSYN004BUFR
0106501360999992018022406004+52970+122530FM-12+043399999V0200901N0010122000199027000199-01291-02551103091ADDAA106999999AA224999999GF100991999999999999999999KA1240N-03781MA1999999097091MD1710181+9999REMSYN004BUFR
0148501360999992018022409004+52970+122530FM-12+043399999V0201101N0020122000199006000199-01391-02581103051ADDAA106999999AA224999999GA1011+026001101GA2999+999999101GA3999+999999101GE19MSL   +99999+99999GF101991011999026001999999MD1710071+9999REMSYN004BUFR
0093501360999992018022412004+52970+122530FM-12+043399999V0201601N0010122000199009000199-02652-03091103281ADDAA106999999AA224999999GF100991999999999999999999MA1999999097091MD1210071+9999REMSYN004BUFR
0052501360999992018022415004+52970+122530FM-12+043399999V0202001N0010199999999008000199-03051-03401103211ADDAA106999999AA224999999MD1210041+9999REMSYN004BUFR
0067501360999992018022418004+52970+122530FM-12+043399999V0201801N0010199999999011000199-03371-03741103141ADDAA106999999AA224999999MA1999999097141MD1210011+9999REMSYN004BUFR
0052501360999992018022421004+52970+122530FM-12+043399999V0203601N0000199999999012000199-03621-04011103201ADDAA106999999AA224999999MD1210021+9999REMSYN004BUFR
