0169501360999992018010100004+52970+122530FM-12+043399999V0201401N00101026001C9004700199-02041-02321102941ADDAA124001531AJ100003100000099GA1081+026001101GA2999+999999101GA3999+999999101GE19MSL   +99999+99999GF108991081999026001999999MA1999999097051MD1210061-0101REMSYN004BUFR
0165501360999992018010103004+52970+122530FM-12+043399999V0201101N0010122000199004900199-01651-02051102921ADDAJ100079100070099AY171031AY201031GA1021+026001101GA2999+999999101GA3999+999999101GE19MSL   +99999+99999GF102991021999026001999999MD1210021+9999MW1001REMSYN004BUFR
0187501360999992018010106004+52970+122530FM-12+043399999V0202701N00101026001C9027000199-01271-01781102841ADDAA106000131AY171061AY201061GA1081+026001101GA2999+999999101GA3999+999999101GE19MSL   +99999+99999GF108991081999026001999999KA1240N-02051MA1999999097021MD1710051+9999MW1001REMSYN004BUFR
0148501360999992018010109004+52970+122530FM-12+043399999V0202701N00101026001C9030000199-01341-01691102901ADDAA106999999AA224999999GA1081+026001101GA2999+999999101GA3999+999999101GE19MSL   +99999+99999GF108991081999026001999999MD1210061+9999REMSYN004BUFR
0163501360999992018010112004+52970+122530FM-12+043399999V0202501N00201026001C9030000199-01321-01711102961ADDAA106999999AA224999999GA1081+026001101GA2999+999999101GA3999+999999101GE19MSL   +99999+99999GF108991081999026001999999MA1999999097121MD1210041+9999REMSYN004BUFR
0169501360999992018020100004+52970+122530FM-12+043399999V0203601N0000122000199003000199-03641-04021103561ADDAA124100092AJ199999999999999GA1031+026001101GA2999+999999101GA3999+999999101GE19MSL   +99999+99999GF103991031999026001999999MA1999999097341MD1210211+0701REMSYN004BUFR
0148501360999992018020103004+52970+122530FM-12+043399999V0203601N0000122000199003800199-02751-03151103651ADDAA106999999AA224999999GA1011+026001101GA2999+999999101GA3999+999999101GE19MSL   +99999+99999GF101991011999026001999999MD1210131+9999REMSYN004BUFR
0176501360999992018020106004+52970+122530FM-12+043399999V0200401N0010122000199999999999-01842-02691103531ADDAA106999999AA224999999GA1011+026001101GA2999+999999101GA3999+999999101GE19MSL   +99999+99999GF101991011999026001999999KA1240N-03671MA1999999097451MD1710021+9999REMSYN004BUFR
0148501360999992018020109004+52970+122530FM-12+043399999V0202001N00101026001C9012000199-02321-02941103761ADDAA106999999AA224999999GA1071+026001101GA2999+999999101GA3999+999999101GE19MSL   +99999+99999GF107991071999026001999999MD1210141+9999REMSYN004BUFR
0163501360999992018020112004+52970+122530FM-12+043399999V0201401N00101026001C9012000199-02921-03241104051ADDAA106999999AA224999999GA1051+026001101GA2999+999999101GA3999+999999101GE19MSL   +99999+99999GF105991051999026001999999MA1999999097771MD1210181+9999REMSYN004BUFR
0175501360999992018030100004+52970+122530FM-12+043399999V0203601N00001026001C9012000199-02421-02721101691ADDAA124000331AJ100003100000099GA1071+026001101GA2999+999999101GA3999+999999101GE19MSL   +99999+99999GF107991071999026001999999MA1999999095851MD1210031-0601MW1221REMSYN004BUFR
0126501360999992018030103004+52970+122530FM-12+043399999V0202901N00101026001C9018000199-01391-01921101551ADDGA1081+026001101GA2999+999999101GA3999+999999101GE19MSL   +99999+99999GF108991081999026001999999MD1710081+9999REMSYN004BUFR
0176501360999992018030106004+52970+122530FM-12+043399999V0203401N00301026001C9021000199-01151-01861101371ADDAA106999999AA224999999GA1081+026001101GA2999+999999101GA3999+999999101GE19MSL   +99999+99999GF108991081999026001999999KA1240N-02691MA1999999095591MD1710181+9999REMSYN004BUFR
0148501360999992018030109004+52970+122530FM-12+043399999V0203201N00101026001C9030000199-01251-02101101311ADDAA106999999AA224999999GA1051+026001101GA2999+999999101GA3999+999999101GE19MSL   +99999+99999GF105991051999026001999999MD1710081+9999REMSYN004BUFR
0163501360999992018030112004+52970+122530FM-12+043399999V0201601N0010122000199011000199-02341-02641101411ADDAA106999999AA224999999GA1021+026001101GA2999+999999101GA3999+999999101GE19MSL   +99999+99999GF102991021999026001999999MA1999999095501MD1710011+9999REMSYN004BUFR
0175501360999992018040100004+52970+122530FM-12+043399999V0203601N00001026001C9011000199-00051-00411099591ADDAA106999999AA224999999GA1081+026001101GA2999+999999101GA3999+999999101GE19MSL   +99999+99999GF108991081999026001999999IA2999-00449MA1999999094281MD1710191-1501REMSYN004BUFR
0148501360999992018040103004+52970+122530FM-12+043399999V0201401N00301026001C9020000199+01602-00161098891ADDAA106999999AA224999999GA1051+026001101GA2999+999999101GA3999+999999101GE19MSL   +99999+99999GF105991051999026001999999MD1710541+9999REMSYN004BUFR
0176501360999992018040106004+52970+122530FM-12+043399999V0201601N00501026001C9030000199+01752-00281098631ADDAA106999999AA224999999GA1071+026001101GA2999+999999101GA3999+999999101GE19MSL   +99999+99999GF107991071999026001999999KA1240N-00601MA1999999093491MD1710251+9999REMSYN004BUFR
0148501360999992018040109004+52970+122530FM-12+043399999V0203401N00501017501C9016000199+01101-00401098631ADDAA106999999AA224999999GA1071+017501101GA2999+999999101GA3999+999999101GE19MSL   +99999+99999GF107991071999017501999999MD1710061+9999REMSYN004BUFR
0174501360999992018040112004+52970+122530FM-12+043399999V0202901N00401012501C9999999999+00301+00151099191ADDAA106002031AY101061AY201061GA1081+012501101GA2999+999999101GA3999+999999101GE19MSL   +99999+99999GF108991081999012501999999MA1999999093921MD1210491+9999MW1801REMSYN004BUFR
0163501360999992018050100004+52970+122530FM-12+043399999V0200701N0010122000199027000199+00361-01081102361ADDAA106999999AA224999999GA1031+012501101GA2999+999999101GA3999+999999101GE19MSL   +99999+99999GF103991031999012501999999MA1999999096951MD1210061+0301REMSYN004BUFR
0148501360999992018050103004+52970+122530FM-12+043399999V0202901N0030122000199030000199+01101-01171102221ADDAA106999999AA224999999GA1031+012501101GA2999+999999101GA3999+999999101GE19MSL   +99999+99999GF103991031999012501999999MD1710121+9999REMSYN004BUFR
0176501360999992018050106004+52970+122530FM-12+043399999V0203201N00701012501C9030000199+01071-01131102061ADDAA106999999AA224999999GA1061+012501101GA2999+999999101GA3999+999999101GE19MSL   +99999+99999GF106991061999012501999999KA1240N-00731MA1999999096651MD1710181+9999REMSYN004BUFR
0163501360999992018060100004+52970+122530FM-12+043399999V0201401N0010122000199030000199+01971+01051100151ADDAA106999999AA224999999GA1011+026001101GA2999+999999101GA3999+999999101GE19MSL   +99999+99999GF101991011999026001999999MA1999999095171MD1210011-0701REMSYN004BUFR
0148501360999992018060103004+52970+122530FM-12+043399999V0203601N0030122000199030000199+02611+01071100001ADDAA106999999AA224999999GA1031+012501101GA2999+999999101GA3999+999999101GE19MSL   +99999+99999GF103991031999012501999999MD1710091+9999REMSYN004BUFR
0176501360999992018060106004+52970+122530FM-12+043399999V0200401N0030122000199030000199+02971+00871099931ADDAA106999999AA224999999GA1031+012501101GA2999+999999101GA3999+999999101GE19MSL   +99999+99999GF103991031999012501999999KA1240N+00861MA1999999094971MD1710111+9999REMSYN004BUFR
0163501360999992018070100004+52970+122530FM-12+043399999V0200201N0010122000199023000199+01671+01521100581ADDAA106999999AA224000831GA1021+026001101GA2999+999999101GA3999+999999101GE19MSL   +99999+99999GF102991021999026001999999MA1999999095541MD1210061+0401REMSYN004BUFR
0148501360999992018070103004+52970+122530FM-12+043399999V0203401N00301012501C9030000199+02371+01601100511ADDAA106999999AA224999999GA1051+012501101GA2999+999999101GA3999+999999101GE19MSL   +99999+99999GF105991051999012501999999MD1710061+9999REMSYN004BUFR
0176501360999992018070106004+52970+122530FM-12+043399999V0203401N00101012501C9008000199+02451+01491100491ADDAA106999999AA224999999GA1071+012501101GA2999+999999101GA3999+999999101GE19MSL   +99999+99999GF107991071999012501999999KA1240N+01081MA1999999095451MD1710031+9999REMSYN004BUFR
0163501360999992018080100004+52970+122530FM-12+043399999V0203601N0010122000199020000199+01401+01131100961ADDAA106000131AA224000431GA1031+026001101GA2999+999999101GA3999+999999101GE19MSL   +99999+99999GF103991031999026001999999MA1999999095851MD1710011+0701REMSYN004BUFR
0126501360999992018080103004+52970+122530FM-12+043399999V0201401N0020122000199030000199+02401+01521100671ADDGA1021+017501101GA2999+999999101GA3999+999999101GE19MSL   +99999+99999GF102991021999017501999999MD1710231+9999REMSYN004BUFR
0176501360999992018080106004+52970+122530FM-12+043399999V0202701N0040122000199030000199+02751+01151100471ADDAA106999999AA224999999GA1041+017501101GA2999+999999101GA3999+999999101GE19MSL   +99999+99999GF104991041999017501999999KA1240N+00771MA1999999095431MD1710191+9999REMSYN004BUFR
0163501360999992018090100004+52970+122530FM-12+043399999V0200701N0010122000199019000199+01561+00991101251ADDAA106999999AA224999999GA1041+026001101GA2999+999999101GA3999+999999101GE19MSL   +99999+99999GF104991041999026001999999MA1999999096151MD1710031-0401REMSYN004BUFR
0148501360999992018090103004+52970+122530FM-12+043399999V0203601N00101012501C9030000199+02401+01291101021ADDAA106999999AA224999999GA1071+012501101GA2999+999999101GA3999+999999101GE19MSL   +99999+99999GF107991071999012501999999MD1710201+9999REMSYN004BUFR
0176501360999992018090106004+52970+122530FM-12+043399999V0202001N00201012501C9030000199+02521+01221100881ADDAA106999999AA224999999GA1071+012501101GA2999+999999101GA3999+999999101GE19MSL   +99999+99999GF107991071999012501999999KA1240N+00641MA1999999095811MD1710141+9999REMSYN004BUFR
0175501360999992018100100004+52970+122530FM-12+043399999V0201401N0010122000199018000199+00171-00371101561ADDAA106999999AA224999999GA1021+026001101GA2999+999999101GA3999+999999101GE19MSL   +99999+99999GF102991021999026001999999IA2999-00429MA1999999096191MD1710101-0601REMSYN004BUFR
0052501360999992018100103004+52970+122530FM-12+043399999V0200701N0020199999999030000199+01151-00061101191ADDAA106999999AA224999999MD1710291+9999REMSYN004BUFR
0182501360999992018100106004+52967+122533FM-12+043899999V0202501N003019999999N030000199+01771-00051100751ADDGA1071+017501999GE19MSL   +99999+99999GF107991071999017501999999KA1240N-00381MA1999999095531MD1710371+9999REMSYN06450136 32780 72503 10177 21005 39553 40075 57037 87/// 333 21038=
0181501360999992018110100004+52970+122530FM-12+043399999V0203601N00001026001C9023000199-00851-00951102461ADDAA124070091AJ199999999999999GA1051+026001101GA2999+999999101GA3999+999999101GE19MSL   +99999+99999GF105991051999026001999999IA2999-00359MA1999999096901MD1210111+0301REMSYN004BUFR
0148501360999992018110103004+52970+122530FM-12+043399999V0200701N00101026001C9019000199+00161-00511102261ADDAA106999999AA224999999GA1061+026001101GA2999+999999101GA3999+999999101GE19MSL   +99999+99999GF106991061999026001999999MD1710121+9999REMSYN004BUFR
0176501360999992018110106004+52970+122530FM-12+043399999V0200701N00201026001C9030000199+00801-00361101991ADDAA106999999AA224999999GA1071+026001101GA2999+999999101GA3999+999999101GE19MSL   +99999+99999GF107991071999026001999999KA1240N-01081MA1999999096551MD1710231+9999REMSYN004BUFR
0169501360999992018120100004+52970+122530FM-12+043399999V0203201N00101026001C9007000199-02571-02881101621ADDAA124190092AJ199999999999999GA1071+026001101GA2999+999999101GA3999+999999101GE19MSL   +99999+99999GF107991071999026001999999MA1999999095611MD1710301-0801REMSYN004BUFR
0170501360999992018120103004+52970+122530FM-12+043399999V0200401N0010122000199999999999-02091-02531101221ADDAA106999999AA224999999AY101031AY201031GA1031+026001101GA2999+999999101GA3999+999999101GE19MSL   +99999+99999GF103991031999026001999999MD1710351+9999MW1051REMSYN004BUFR
0176501360999992018120106004+52970+122530FM-12+043399999V0202501N00101026001C9017000199-01401-02101100991ADDAA106999999AA224999999GA1071+026001101GA2999+999999101GA3999+999999101GE19MSL   +99999+99999GF107991071999026001999999KA1240N-03241MA1999999095131MD1710131+9999REMSYN004BUFR
